:020000040000FA
:0600000002010A022A1BA6
:03002B00022E7929
:03003300022E5149
:03005300022A8EF0
:03006B00022E9EC4
:10008300022887E5C754F84401F5C7790122000027
:100093000080FB120086B900030200F4E4792178A2
:1000A30008B800028004F709D8FCE479297802B87B
:1000B30000028004F709D8FCE4900281783B790AB6
:1000C3008002F0A3D8FCD9FA900BBBAA82AB839031
:1000D300013A789279048015E493A3AC82AD838AC4
:1000E300828B83F0A3AA82AB838C828D83D8E9D9D8
:1000F300E77582B07583FF740312011C75829175D5
:100103008300740012011C75D00075813F7518813E
:10011300751902759F00020096C09FF59FE473D086
:100123009F22D083D082C09FE493C0E0740193C028
:10013300E0740293F59F22FF0000B400002800281A
:1001430000283075A000A000A000A000000800084F
:10015300E001F0001000100010001000100010006B
:1001630050005000500010001000D00700000000A5
:1001730000000F00010005003075070010000100AA
:1001830081FF00000000FFC906E706CF06FF020259
:100193000208025000A0000000E8030248A7010083
:1001A3000031A70244A7010000120C023EA7010080
:1001B30000B3020244A7010000130C023CA7010094
:1001C30000C9020244A7010000140C023AA701006F
:1001D30000CB020244A7010000150C0238A7080057
:1001E30000CC020244A7010000160C0236A701004E
:1001F30000170CFF0100FF200248A70100002BA7F6
:100203000244A70100007B0C0234A7000000000099
:100213000240A70300001903990C990C990C990C3F
:10022300990C990C990C990C990C990C990C990CA3
:10023300990C1B0F330F150FFFFF0202020202027C
:10024300020202010D00000010010248A701000094
:1002530028A70244A7010000BE0C0258A701000012
:100263005D070244A7010000BF0C025EA701000066
:10027300EFA50244A7010000C00C0260A701000023
:10028300C6A50244A7010000C10C0264A701000037
:1002930061A50244A7010000C20C0278A701000077
:1002A3002BA50244A7010000C30C0272A7010000A2
:1002B3004FA50244A7010000C40C0270A70100006F
:1002C3003DA50244A7010000C50C026EA701000072
:1002D300D4A50244A7010000C60C026CA7010000CC
:1002E300C70C01E803053F100A4500000046000063
:1002F300000A536574204C6F6E67205465726D203D
:100303004D6F646500000A0A53616D706C696E6716
:10031300205261746500000A4461746520616E6453
:100323002054696D6500000248A701000025A7025B
:1003330044A7010000750D024EA7030000550802F3
:1003430042A7010000760D0244A70100008A0D02B6
:1003530062A70300008B0D0242A70100008C0D026F
:1003630044A70100009B0D0266A703000056080284
:1003730042A70100009C0DFF000130750302010636
:10038300000000000000000000000000000000006A
:10039300000000000000000000000000FFFF060056
:1003A300800CE803140944696D706C65424C455038
:1003B30065726970686572616C05125000200302F2
:1003C3000A000201060302F0FF44696D706C6520A8
:1003D300424C45205065726970686572616C851482
:1003E30000009114B5140A43686172616374657205
:1003F30069737469632031000243686172616374D5
:1004030065726973746963203200084368617261BD
:1004130063746572697374696320330010436861A0
:100423007261637465726973746963203400024393
:1004330068617261637465726973746963203500FE
:100443000248A70100002EA70244A70100006A0E7C
:100453000276A7030000AC0B0242A70100006B0E5B
:100463000244A70100007C0E0268A7010000AD0B47
:100473000242A70100007D0E0244A70100008E0E78
:10048300025CA7020000AE0B0242A70100008F0E20
:100493000244A7010000A00E025AA7000000AF0B00
:1004A3000240A7030000B00B0242A7010000A10E07
:1004B3000244A7010000B20E0254A7040000B60BC9
:1004C3000242A7010000B30E120125E483041201C6
:1004D30025FB83041201252C84041201256784045F
:1004E300120125918404120125BB8404120125D233
:1004F3008404120125E984041201250085041201F4
:10050300252985041201253C850412012552850401
:100513001201256585041201258C850412012569C4
:100523008A031201256D8B03120125A58B0312018A
:1005330025C88B03120125D38B03120125F68B03E8
:10054300120125058D03120125DA8D0312012555AC
:100553008E03120125DD8E03120125188F0312016C
:10056300254F8F03120125DD8F03120125B690035A
:10057300120125169103120125219103120125A0D1
:100583009103120125A39103120125A691031201E0
:10059300253592031201253892031201256892032F
:1005A3001201259292031201258093031201253231
:1005B300940312012552C2031201257AC2031201C8
:1005C30025A8C203120125DFC2031201253DC3037F
:1005D30012012588C303120125D3C3031201251376
:1005E300C40312012559C40312012587C403120150
:1005F3002544C5031201254EC5031201255BC5031E
:100603001201258EC5031201255AC6031201256660
:10061300C6031201257EC60312012588C6031201F3
:1006230025157F00120125237F001201253B7F0042
:10063300120125537F00120125628F021201250E3C
:100643009002120125899002120125AA910212013A
:1006530025E691021201258F92021201257693025B
:10066300120125DA9402120125319502120125B2F5
:100673009502120125A29602120125EF960212019C
:1006830025759702120125A79702120125BB99022E
:10069300120125FD99021201251B9A021201259EC2
:1006A3009A02120125729B021201253A9C02120141
:1006B30025D9F802120125ACF90212012555FA02D7
:1006C300120125A8FA0212012558FB02120125E4A2
:1006D300FB02120125D0FC02120125FFFC021201CC
:1006E3002512FE021201255AFE021201252FFF02D6
:1006F3001201256BFF0212012587FF02120125D982
:100703008E0412012571E40312012587E40312010B
:1007130025ADE403120125C9E503120125D3E50341
:1007230012012508E70312012500E803120125350C
:10073300B80312012565B90312012598B903120103
:1007430025E2B903120125A9BB03120125B7E30171
:1007530012012521E40112012580E50112012590F2
:10076300E501120125BDE50112012514E60112017F
:1007730025BDE601120125C4E7011201258EE8011A
:10078300120125EEE90112012531EA01120125D6F4
:10079300EA0112012523EB0112012549EB011201A4
:1007A3002557ED011201255CED0112012561EF01D1
:1007B300120125AEEF0112012521F001120125548A
:1007C300F001120125F6F0011201259FF10112013A
:1007D30025D7F101120125DAF10112012522F201D7
:1007E30012012562F201120125B9F201120125D28B
:1007F300F703120125EAF70312012532F803120168
:100803002548F8031201258FF803120125A3F903E4
:1008130012012530FA031201257BFA03120125D9AF
:100823004C00120125E54C00120125204D00120158
:1008330025654D00120125254E00120125AB4E0002
:10084300120125104F001201253C4F00120125759E
:100853004F00120125B351001201259753001201D5
:10086300257D5500120125C056001201250E5900A1
:10087300120125205A001201256B5B001201257B12
:100883005C00120125985C00120125D35C00120163
:1008930025F55C00120125585D001201251962003F
:1008A300120125AE6200120125FF62001201252606
:1008B300630012012578630012012596630012017B
:1008C30025F06300120125D964001201254F66004B
:1008D300120125D366001201250FC7031201251942
:1008E300C7031201255CC70312012577C703120151
:1008F3002507C8031201252FC8031201256CC8035D
:10090300120125A3C803120125CCC80312012541F6
:10091300C90312012556C9031201256BC90312012C
:10092300259CC903120125B0C903120125D5C903AA
:100933001201250FCA031201253BCA0312012573B5
:10094300CA03120125F2CA031201253BCB0312018C
:100953002565CB0312012590CB03120125528A048E
:10096300120125D7D50212012505D60212012553FE
:10097300D70212012533D80212012552D8021201DF
:1009830025CFD80212012512D90212012568DA02F5
:1009930012012529DB02120125B0DD0212012551C6
:1009A300DE0212012547DF0212012544E002120193
:1009B300259EE10212012529E202120125F788048E
:1009C300120125608904120125B48904120125DB73
:1009D30089041201250C8A041201255FD003120138
:1009E30025CCD00312012513D1031201252BD203E9
:1009F30012012527D3031201250AD403120125A3CB
:100A03009403120125E59403120125B795031201FE
:100A1300259096031201258A97031201256C9803EA
:100A2300120125D598031201258B9903120125FF85
:100A330099031201256B9A03120125949A0312015B
:100A4300250E9B03120125A79B031201250C9C0372
:100A5300120125219C03120125679C0312012580A5
:100A63009C03120125E59C03120125E89C03120156
:100A730025FCF10312012524F20312012562F2037E
:100A830012012520F30312012587F303120125A385
:100A9300F303120125CBF303120125FBF303120128
:100AA300250AF40312012587F403120125ADF4038B
:100AB300120125008002120125DE81021201251098
:100AC30084021201254C8402120125798402120149
:100AD30025638502120125AE8502120125F98502DF
:100AE3001201250B86021201254B86021201258075
:100AF3008602120125CE8602120125FD860212010D
:100B0300252087021201256D8702120125F2870233
:100B13001201250C8A021201254B8C021201258C2D
:100B23008C021201252E8E021201256F8E021201F4
:100B330025E28E02120125388F02120125C2C80256
:100B4300120125C0C90212012559D0021201257ACA
:100B5300D20212012545D402120125ADD50212019C
:100B6300253A6700120125E967001201252F680065
:100B73001201256F6900120125056B001201257F03
:100B83006B001201259A6B00120125156C001201EE
:100B9300256F6D00120125CF6E00120125D56F0060
:100BA3001201253671001201254F7100120125AD86
:100BB30071001201259B7200120125CE72001201F1
:100BC300253E7300120125B873001201250274003B
:100BD300120125CC7400120125A175001201258094
:100BE30076001201250B7700120125797700120197
:100BF30025ED7700120125187800120125D778001A
:100C03001201253C7A00120125597A001201257838
:100C13007A00120125697B001201258E7B001201E7
:100C230025B87B00120125337C001201258D7C0041
:100C3300120125F67D00120125A47E00120125E58F
:100C43007E00120125EEBA021201253CBB021201FD
:100C53002548BB0212012526BC0212012557BC02FE
:100C630012012588BC0212012508BD02120125408C
:100C7300BD0212012592BD02120125CFBD02120150
:100C830025ECBF0212012512C202120125FDC30287
:100C9300120125E7C502120125FAFF011201258E73
:100CA300BC01120125BEBC0112012597C30112012B
:100CB300251CC50112012519CB0112012501CC0107
:100CC3001201253ECC0112012561CC0112012592AE
:100CD300CC011201259BCC01120125A5CC011201E7
:100CE3002593CD0112012589CE011201257FA7018C
:100CF3001201257EAB0112012584AB01120125BF30
:100D0300B201120125D8B7011201258FEB0312019D
:100D13002589EC03120125FDEC031201253BED03AC
:100D2300120125AFED0312012528EE03120125312F
:100D3300EE031201253DEE0312012552EE031201CB
:100D43002590EE03120125A6EE03120125CCD40350
:100D5300120125D9D403120125F3D403120125323C
:100D6300D50312012570D503120125D5D503120130
:100D730025EAD503120125F5D50312012502D60371
:100D830012012519D60312012527D6031201253294
:100D9300D6031201253ED6031201254DD6031201B7
:100DA3002558D6031201257BD60312012522D7032A
:100DB30012012532D7031201254CD70312012569ED
:100DC300D70312012585D703120125AAD7031201E0
:100DD30025B5D703120125CAD703120125DED70390
:100DE3001201253FD80312012545D8031201254BD3
:100DF300D80312012551D80312012569D803120122
:100E0300259CD803120125C4AC0212012548AD026A
:100E1300120125F7AD0212012556AF021201257703
:100E2300B10212012563B20212012598B202120126
:100E330025BAB20212012569B30212012561B50276
:100E43001201258AB5021201251CB6021201254E94
:100E5300B6021201255BB602120125B2B6021201D7
:100E630025D8B60212012545B90212012548BA0256
:100E7300120125A0BA02120125539E021201255D1B
:100E83009F0212012544A0021201254EA002120165
:100E93002570A0021201257CA00212012515A202D1
:100EA30012012544A20212012560A302120125B9F1
:100EB300A3021201251FA502120125FEA50212019C
:100EC300255AA602120125C7A60212012502A7026E
:100ED30012012541A702120125FAA90212012514C4
:100EE300AA02120125A0AA02120125AEAA0212012A
:100EF3002507AB0212012515AB0212012588AB02AF
:100F0300120125ECAB0212012536AC02120125AA0F
:100F1300E202120125CCE202120125F2E4021201DF
:100F23002507E8021201251FE902120125D2E90271
:100F3300120125B4EA021201255287041201257712
:100F43008704120125E98704120125DDA403120198
:100F530025E6A403120125EFA403120125C6A50368
:100F630012012577A703120125ADA703120125E777
:100F7300A7031201251DA80312012557A803120177
:100F8300258BA803120125B7A80312012500A90385
:100F93001201253AA90312012583A903120125DBB6
:100FA300A90312012510AA031201256BAA0312013A
:100FB30025A5AA03120125F6AA031201252CAB03CA
:100FC30012012566AB0312012594AB03120125B769
:100FD300AB03120125018D041201252D8D0412018D
:100FE30025888D04120125928D04120125A28D04FA
:100FF300120125D8ED02120125EDED02120125455E
:10100300EE02120125ACEE02120125F4EE021201EA
:10101300256AEF0212012599EF02120125FFF20260
:101023001201250DF30212012571F302120125AFFE
:10103300F302120125CAF30212012562F40212011E
:10104300250BF5021201258EF502120125C7F502C3
:1010530012012552F602120125A9F60212012508F2
:10106300F7021201251AF70212012540F7021201B5
:101073002549F702120125A2F80212012557AC03F4
:1010830012012536AD0312012592AD03120125ACE1
:10109300AD03120125BDAD03120125B8B003120142
:1010A30025D8B0031201254EFD0312012593FD033C
:1010B300120125D9FD031201256CFF031201255DE1
:1010C3008F04120125788F04120125888F041201E1
:1010D30025AC8D0412012589B203120125A9B2039F
:1010E300120125ADB303120125F9B303120125192A
:1010F300B4031201256CB403120125D9B403120100
:10110300251FB50312012583B503120125FF8104B1
:101113001201252F82041201255F82041201252268
:1011230083041201257C83041201255CBD03120193
:101133002581BD03120125BCBD031201254F8E0479
:10114300120125CC2E00120125DA31001201259A55
:101153003300120125453400120125E93400120140
:1011630025823500120125B135001201258B3A0085
:10117300120125363B00120125A63C001201250E63
:101183003D00120125C23D001201258440001201D9
:1011930025C3400012012537410012012596410065
:1011A300120125F541001201256442001201255761
:1011B30043001201259D4300120125E24300120161
:1011C30025054400120125804500120125934500A1
:1011D3001201259C4600120125DB4600120125075A
:1011E30047001201255A47001201257B47001201CF
:1011F30025BF4700120125114A00120125524A005A
:10120300120125FD4A00120125684B00120125A594
:101213004C001201250BFF011201251CFF011201D5
:1012230025A5FA0312012540FD03120125CD9004E3
:10123300120125378C04120125478C041201256104
:101243008C04120125FE8C04120125F5F40312010E
:10125300259BF503120125B7F7031201259E85048B
:10126300120125CE85041201253E86041201259A1A
:10127300860412012515870412012519D9031201C9
:101283002531D90312012579DA0312012538DB034D
:1012930012012553DB0312012573DB03120125C160
:1012A300DB03120125DBDB03120125F5DB0312014E
:1012B300250BDC031201252ADC031201254BDC0379
:1012C30012012576DC03120125CBDC03120125EC88
:1012D3007F00120125D8E00312012524E103120146
:1012E3002562E103120125D5E203120125C5E303BB
:1012F30012012523E40312012500DD031201252534
:10130300DD0312012542DD03120125DBDE03120199
:101313002500800412012569800412012527810418
:10132300120125A68104120125D6EE031201250818
:10133300EF0312012510F00312012535F103120109
:1013430025008003120125E6800312012533810362
:10135300120125768103120125EB81031201254C2D
:101363008203120125C182031201259D8303120109
:1013730025A88403120125298503120125D086039C
:10138300120125668703120125D98703120125550A
:1013930088031201256C8803120125A38903120116
:1013A30025FD8903120125A1D00112012539D5019B
:1013B3001201250DD80112012536D8011201255F2E
:1013C300D80112012511D901120125F7DA01120101
:1013D3002532DC0112012568E101120125A1E10199
:1013E300120125E5E101120125F7E2011201250AA7
:1013F300E8031201251EE80312012534E803120154
:10140300254AE803120125C3E80312012516E9035F
:1014130012012569E903120125C5E90312012543D8
:10142300EA031201255DEA031201256EEA031201A4
:1014330025A6F301120125B4F301120125CFF3010F
:10144300120125E6F501120125CAF701120125272C
:10145300F90112012576FA01120125DCFD011201C1
:10146300256B8B04120125778B04120125028C0452
:101473001201250C9D03120125E59F03120125DCB2
:10148300A003120125DFA00312012527A2031201E5
:101493002560A203120125DEA203120125B7A303CF
:1014A300120125ECA30312012513A4031201253411
:1014B300A4031201258CA403120125A7A40312017E
:1014C30025B5A403120125B8CB031201250BCC03C8
:1014D30012012528CC0312012516CD0312012593F1
:1014E300CD03120125BACE0312012522D003120126
:1014F30025DF8F041201255B90041201252590043A
:10150300120125879004120125AF9004E066701044
:1015130008A3E066700A08A3E066700408A3E06607
:1015230022C3E7960809E7960809E7960809E796AC
:1015330022C3E09608A3E09608A3E09608A3E096EA
:1015430022C008C3E096F50808A3E096420808A362
:10155300E096420808A3E09645087001D3D008221C
:10156300E9799EC608CAC608CBC608CCC6C3702094
:101573007996CACBCC7019798ECBCC70137986CC83
:10158300700EF9802ACA33CACB33CBCC33CC331990
:1015930030E7F2CCCBCA3350147004EA30E00DE4E8
:1015A300CA3ACACB3BCBCC3CCC500209C3E913C6E5
:1015B300CC182313C6CB18C6CA18C6F92212160BA9
:1015C30030F039121650803412160B20F01430E725
:1015D3002B74FFFCFBFA747F8022E4FCFBFA74801B
:1015E300801AB48008BC00F2BB00EF800F50EBF907
:1015F300E4C39AFAE49BFBE49CFCE499C6CC18C6CA
:10160300CB18C6CA18C6F922E4C9C608CAC608CB8D
:10161300C6D3330308CCC63392F0C3947F402E94D1
:10162300184019C9B90704CACBCC225025C309CA2B
:1016330033CACB33CBCC33CC33D9F422F4600DC9CA
:10164300CCC313CB13CBCA13CAD9F6CC22E4FCFB0D
:10165300FA2214FCFBFA22E6C3331846184618464E
:1016630022E7C33319471947194722181818E60800
:101673004608700AE608C3337005E633F4220822ED
:10168300191919E7094709700AE709C3337005E710
:1016930033F4220922E6084608C3134608336002DE
:1016A300E633F422E7094709C3134709336002E726
:1016B30033F42200121698604F1216A76012E754F3
:1016C3008066F612166E7011121664703B090909D2
:1016D300F4F618F618F618F6221216837015121679
:1016E3005A08080860EAE6447FF618768018E4F69C
:1016F30018F62212165A60161216647012E4F608CF
:10170300F608F608E65480F609090918181822EABB
:10171300C0E0EBC0E0ECC0E0EDC0E0E687F0A4FB86
:10172300ACF008E687F0A42CFCE435F0FA1809E6DF
:1017330087F0A42C4B60027401CA35F0FCE433FB40
:1017430009E687F0D2F7A42CCB35F0FC1908E6871D
:10175300F0A42BCC35F0FBE433FD0819E687F0D277
:10176300E7A42C4ACB35F0CD3400FC09E687F0D250
:10177300E7A42DCC35F0FDE433FA0918E687F0D25F
:10178300F7A42CCD35F0CA3400FC08E687F0D2E785
:10179300D2F7A42ACC35F07A7E20E70B0ACB33CBE1
:1017A300CD33CDCC33CC33CB3350147004ED30E098
:1017B3000ED2F1E4CD3DCDCC3CCC3B5005DA05C295
:1017C300F1EB547FC63308E63392F0FBE73309E7C6
:1017D30033C39A502D2B70190C0D4C4D70151806F0
:1017E300E608C333700D20F10AA2F013F6E4188063
:1017F3000B4024E4F630F002768018F618F618F65B
:101803008024D33B14501074FFA2F013F618768093
:10181300E418F618F6800FA2F013F618E63303F671
:1018230018ECF618EDF6D0E0FDD0E0FCD0E0FBD0EC
:10183300E0FA22121698601D1216A77005191919DD
:10184300801A12166E701F121683C37003E6673375
:1018530019191940071818182208080874FFF618F0
:10186300F618F618F6221216836017121664702102
:1018730092F012165A7019501720F014080808092C
:101883000909E7F61819E7F61819E7F61819E7F63C
:101893002212165A60E6E869701F0808E62480F6EB
:1018A30008E436F618547FB47F0CE654806007F6DC
:1018B300E418F618F622181822E9C6CC08C6CD0893
:1018C300C6CE08C6CFC0E0E8C0E0EAC0E0EBC0E0A7
:1018D30009E9F809E7FA09E7FBE6F918E6F8C3ECC2
:1018E30098ED99EE9AEBC2E7F5F0EFC2E795F05069
:1018F3000E600CEBCFFBEACEFAE9CDF9E8CCF8EABF
:10190300A2E7D2E7FAEB33FB13F5F0EEA2E7D2E757
:10191300FEEF33FFC5F013A2E730E601B313C5F0C2
:10192300C3C0E0C0F07F00C39BFB605E9418600FF0
:10193300401D14601AD0E023F9D0E0F8021A178A88
:10194300F0E9486003D2F0E4AFF0FAF9F8803BEB3A
:1019530030E40D89F0EA6003D2F0E4AFF0F9CAF89D
:10196300EB30E30D88F0EF6002D2F0AFF0E4CAC9C8
:10197300F8EB54076014FBC3EA13FAE913F9E8130D
:10198300F8EF135002D2E0FFDBEDD0E0C0E030E728
:1019930039C3E49FFFF5F0EC98FC42F0ED99FD426A
:1019A300F0EE9AFE42F0D0E0F9D0E0F8E5F0607A8C
:1019B300E923F9EE20E742D8028067C3EF33FFEC57
:1019C30033FCED33FDEE33FE80EAEC28FCED39FD0C
:1019D300EE3AFED0E023F9D0E0F84002801BC3EEDC
:1019E30013FEED13FDEC13FCEF135002D2E0FF08DE
:1019F300B800067F7F74FF802EEF3350178CF020E2
:101A0300F00260100CBC000C0DBD00080EBE0004FB
:101A130008E860DFE933E813FFEE2313FE4F4D4C74
:101A23008008E95480FFE4FEFDFCEE33EF33F470ED
:101A330004FCFD7E80D0E0FBD0E0FAD0E0F8D0E0FB
:101A4300CFC618CEC618CDC618CCC6F92212169822
:101A53007004181818221216A7700D74FFF61819BF
:101A6300F61819F61819F622E7548066F612165A74
:101A7300700F12166470F014F608F608F608F68074
:101A8300D1121664700CF608F608768008E6447FD7
:101A930080EC121686700C12167160BFE65480F645
:101AA300E480BB121671700519191980A5E86970D5
:101AB3000C763F18768018F618F6E8F922E6CDC0C2
:101AC300E018ECC0E0E633CD33CDD313F6E719FCD1
:101AD300E7191933CC33C3947F400ECD9D502408AE
:101AE300E65480F6E418F6800FF4043D145014080D
:101AF300E6447FF6187680E418F618F6D0E0FCD0BA
:101B0300E0FD22CCD313CCFD18E4C6CBC0E018E42F
:101B1300C6CAC0E00808ED08C633E613F618E43376
:101B2300C675F003C3CA97CA09CB97CB199C400467
:101B33007D08802EBD0003021BF916B6FF050606BD
:101B4300081618C3CA33CACB33CB33CA27CA09CB47
:101B530037CB193CC37D08803E187D0820E75CC65F
:101B630033C6CA33CACB33CB33DDF1D5F0EB30E721
:101B73007BCA97CA09CB974ACB199C406F4B7025F8
:101B8300E620E0218066187D08C3CA97CA09CB976F
:101B9300CB199CD3C633C6CA33CACB33CB3350C954
:101BA300DDE7D5F0E1D3E4C636C608C636C608C6B7
:101BB30036C608C636C61818188031C3CA97CA096C
:101BC300CB97CB199CB34097C633C6CA33CACB3322
:101BD300CB33DD34D5F02EC6A2E0C640C8CA27CA2F
:101BE30009CB37194A70BECB3CB480B90808E63339
:101BF30008E633601F181818D0E0FAD0E0FBD0E0F5
:101C0300FCD0E0FD22187D08CA27CA09CB37CB19BF
:101C13003CD3808013F618E4B67F11F618B6FF0E96
:101C2300F618C60470D20808768080CAF618F6182B
:101C3300F680C5080808EAC0E0EBC0E086F0E7A438
:101C4300FA180986F0E7A42AFA180986F0E7A42A05
:101C5300FA180986F0E7A42AFA1986F0E7A4FBE547
:101C6300F02AFA190886F0E7A42BFBE5F03AFA19F3
:101C73000886F0E7A42BFBE5F03AFA18180986F07A
:101C8300E7A4C5F02BFBE43AFA1908E7C5F0C6A4AC
:101C930026F6E5F03BFBE43AFA1886F0E7A4F6E50E
:101CA300F00826F6E43B08F6E43A08F6D0E0FBD069
:101CB300E0FA22E4CFC0E0E4CEC0E0E4CDC0E0E44B
:101CC300CCC0E075F020C3E633F608E633F608E649
:101CD30033F608E633F6181818EC33FCED33FDEE53
:101CE30033FEEF33FFC3EC9709ED9709EE9709EF46
:101CF30097191919400FFFEC97FC09ED97FD09EEB1
:101D030097FE191906D5F0BEECF709EDF709EEF7C2
:101D130009EFF7191919D0E0FCD0E0FDD0E0FED0AF
:101D2300E0FF226016080808C6C313C618C613C608
:101D330018C613C618C613C6D5E0EA2270090808E8
:101D430008226016181818C6C333C608C633C60857
:101D5300C633C608C633C6D5E0EA22E627F6080925
:101D6300E637F60809E637F60809E637F622E026ED
:101D7300F608A3E036F608A3E036F608A3E036F645
:101D830022E026F008A3E036F008A3E036F008A32B
:101D9300E036F022C3E697F60809E697F60809E667
:101DA30097F60809E697F622C3E0C696F608A3E07D
:101DB300C696F608A3E0C696F608A3E0C696F622F2
:101DC300C3E096F008A3E096F008A3E096F008A31A
:101DD300E096F022E657F60809E657F60809E657B3
:101DE300F60809E657F622E056F608A3E056F60889
:101DF300A3E056F608A3E056F622E056F008A3E067
:101E030056F008A3E056F008A3E056F022E066F689
:101E130008A3E066F608A3E066F608A3E066F622E8
:101E2300E0F608A3E0F608A3E0F608A3E0F622E64E
:101E3300F008A3E6F008A3E6F008A3E6F022E0FA30
:101E4300A3E0FBA3E0FCA3E0FD22EAF0A3EBF0A3F5
:101E5300ECF0A3EDF022CAC0E0E6F0A308DAFAD072
:101E6300E0FA22CAC0E0E0A3C582CCC582C583CD17
:101E7300C583F0A3C582CCC582C583CDC583DAE60D
:101E8300D0E0CA22C3E498F8E499F9121EC8802668
:101E9300C3E49AFAE49BFBE920E7E9121EC8E4983D
:101EA300F8E499F922C3E498F8E499F9121EC8E416
:101EB30098F8E499F9C3E49AFAE49BFB22EB20E750
:101EC300CFE920E7E0B90010BB0008E88AF084F806
:101ED300AAF022E4FBC8FA22EB70227B10C833C8B5
:101EE300C933C9335007C39AC3DBF280069A500142
:101EF3002ADBEAC833F4C8C933F4C9FA2275F008F7
:101F0300E4C833C8C933C933C99AC99B5004C92A21
:101F1300C93BD5F0ECFBC833F4C8E4C9FA22600D21
:101F230008C6A2E713C618C613C6D5E0F322600C91
:101F330008C6C313C618C613C6D5E0F4227004221C
:101F4300600D18C6C333C608C633C6D5E0F41822DD
:101F5300251810AF08F518400215198008F5184028
:101F6300021519D2AF22C0D0251810AF08F51850AA
:101F73000205198008F51850020519D2AFD0D022F6
:101F83002518F58210AF08F518400215198008F5D9
:101F93001840021519D2AF851983222518F582E45A
:101FA3003519F58322E4732518C582C0E0E5193499
:101FB300FFC583C0E0E518C3958224F810AF0885F8
:101FC30083198582188008858319858218D2AFCE3C
:101FD300F0A3E520F0A37808E608F0A3DEFAEFF01B
:101FE300A3E58124FAF8E608F0A3E608F0A3E608DF
:101FF300F0A30808E608F0A3E608F0A3158115810D
:10200300D0E0FED0E0F8158115811581E8C0E0EE3F
:10201300C0E0222518C582C0E0E51934FFC583C09E
:10202300E0E518C3958224F910AF088583198582EA
:10203300188008858319858218D2AFCEF0A3E520D6
:10204300F0A37808E608F0A3DEFAEFF0A3E5812415
:10205300FBF8E608F0A3E608F0A30808E608F0A3F7
:10206300E608F0A315811581D0E0FED0E0F81581D4
:102073001581E8C0E0EEC0E022851983851882E06F
:10208300A3FEE0A3F5207808E0A3F608DFFAE0A3B7
:10209300FFE0A3C0E0E0A3C0E0E0A3C0E0E0A3C092
:1020A300E0E0A3C0E010AF0885821885831980089B
:1020B300858218858319D2AFD083D082020122850D
:1020C3001983851882E0A3FEE0A3F5207808E0A336
:1020D300F608DFFAE0A3FFE0A3C0E0E0A3C0E0E07E
:1020E300A3C0E0E0A3C0E010AF0885821885831980
:1020F3008008858218858319D2AFD083D08222C00D
:10210300D02518C582C0E0E51934FFC583C0E0E5DA
:1021130018C3958224F310AF08858319858218802C
:1021230008858319858218D2AFC8F0A3E9F0A3EA22
:10213300F0A3EBF0A37908E709F0A3D8FAECF0A336
:10214300EDF0A3EEF0A3EFF0A3D0E0F0A3D0E0F026
:10215300A3D0E0F0A3E520F0A3E5F0F0A3228519D6
:1021630083851882E0C0E0A3E0F9A3E0FAA3E0FBD3
:10217300A37808E0F608A3DFFAE0FCA3E0FDA3E000
:10218300FEA3E0FFA3E0C0E0A3E0C0E0A3E0F5D03E
:10219300A3E0F520A3E0A3F5F010AF08858319852C
:1021A30082188008858319858218D2AFD082D083A4
:1021B300D0E0F8D0E0327404800674028002740127
:1021C300C0E0F404121F83D0E0121E59227404806D
:1021D3000474028000CCC0E0EDC0E0E518C39CCCE1
:1021E300AD1950011D10AF068C188D1980068C187F
:1021F3008D19D2AF121E66D0E0FDD0E0FC22D08351
:10220300D082E9C0E0E493A3C386F0C5F095F0F96A
:1022130008E493A386F0C5F095F0700BE493A3C391
:10222300994005E9048002A3E475F002A42582F530
:1022330082E5F03583F583D0E0F9E493A3C0E0E4CD
:1022430093C0E022D083D082ECC0E0EDC0E0E49301
:10225300A3FCE493A3FDED4C600D122293EC24FF49
:10226300FCED34FFFD80EFE493A3FCE493A3FDEDC9
:102273004C600D1222D2EC24FFFCED34FFFD80EF05
:10228300D0E0FDD0E0FCE493A3C0E0E493C0E022FF
:10229300C0E0C3E49396087401939618400FE49347
:1022A30066700808740193661870007019A3A3C3BD
:1022B300E49396087401939618A3A3400DD0E0D03D
:1022C300E0D0E0022283A3A3A3A3A3A3D0E022C070
:1022D300E0C0F088F0E49366700808740193661810
:1022E3007000A8F0A3A3700BD0F0D0E0D0E0D0E052
:0A22F300022283A3A3D0F0D0E02262
:1023000074F5122016EAFEEBFFEE2434F8EF3400E9
:10231000F988088909EE2435F582EF3400F583E069
:10232000F8EE2437F582EF3400F583E0F50AEC850A
:102330000AF0A4FCAAF0850AF0EDA42AFDE82CF826
:10234000E43DF97A257B00121EC8EA8508828509DA
:1023500083F0F8740758F97401B900028004C3339C
:10236000D9FCFAE8131313541FF8EE28F8EF3400E1
:10237000F9E8245DF582E93400F583E05A6008EE5F
:102380002434F582EF802CEE2434F582EF3400F50E
:1023900083E0C0E0EE2436F582EF3400F583E0F50B
:1023A000F0D0E084A8F0EE28F8EF3400F9E8243803
:1023B000F582E93400F583E0F97F040220C274F568
:1023C000122016EAFEEBFFEE2434F582EF3400F51E
:1023D00083E0C0E0EE2435F582EF3400F583D0E0F1
:1023E000F08E828F83A3A3A3A3A3A3A3C082C083E1
:1023F0008E828F83A3A3A3A3A3E0F8A3E0F9D083E5
:10240000D082E0C398F508A3E099F509EE247FF5A2
:1024100082EF3400F583E064017069EE2480F58278
:10242000EF3400F583E0F8A3E0F98E828F83A3A355
:10243000A3A3A3A3A3E0FCA3E0FD8E828F83A3A3A9
:10244000A3A3A3E0FAA3E0FBC3EA9CEB9D5010C357
:10245000EC98ED99402EC3EA98EB995027800EC373
:10246000EA98EB994007C3EC98ED9940177CDC7D26
:1024700004EEFAEFFB120BF7EE247FF582EF340047
:10248000F583E4F0EE2434F8EF3400F9E8FCE9FDDC
:10249000EE2435F582EF3400F583E0F8EE2437F5CD
:1024A00082EF3400F583E0F50AE508850AF0A4F52B
:1024B00008AAF0850AF0E509A42AF509E82508F834
:1024C000E43509F97A257B00121EC8EA8C828D83D7
:1024D000F0F8740758F97401B900028004C333D9C5
:1024E000FCFAE8131313541FF8EE28F8EF3400F940
:1024F000E8245DF582E93400F583E05A6008EE24B3
:1025000034F582EF802CEE2434F582EF3400F5832D
:10251000E0C0E0EE2436F582EF3400F583E0F5F01C
:10252000D0E084A8F0EE28F8EF3400F9E82438F57C
:1025300082E93400F583E0F9122E150223B9C08236
:10254000C083851882851983E0F8A3E0F9C3EA9C6B
:10255000EB9D5010C3EC98ED99401BC3EA98EB99A2
:102560005014800EC3EA98EB994007C3EC98ED999C
:102570004004790180027900D083D08222EAC39C92
:10258000FAEB9DFB2274EF1220169003A2E0640880
:102590006005E06407702A9061C8E060249003D071
:1025A000E0F4601DE0F875F003A4C8AAF02AF974FD
:1025B000D228FE740339FF8E828F83A3A3A3E07019
:1025C000030226B5906060E0C0E0EE2468F582EF7B
:1025D0003400F583D0E0F0750C45750D05750800E5
:1025E000750900E5D914F50AE5D95403F50E60170D
:1025F0007403650E605CE50A6010EE2467F582EFF7
:102600003400F583E0700302269A900540E06401EF
:10261000602AEE2482F582EF3400F583E0600478CE
:102620000480027800850A08E508C398FA95E0FB63
:10263000120AC58A088B09EA45097005120DE9805E
:1026400074EE2482F582EF3400F583E070048A0C86
:102650008B0DE50A6012850C82850D83F50BE5D99B
:10266000F0A3150BE50B70F6EE2482F582EF340033
:10267000F583E0604474FC250AF50A780C1221BD4C
:10268000AC0AA90EEEFAEFFB120C937402121F694A
:10269000E97026AA08AB09121317793D8E828F8341
:1026A000A3A3A3A3E0FA7B00120999EEFAEFFB12B1
:1026B0000C0F120CA5790080747403650E605685AA
:1026C0000A1075110078101221BDAC0CAD0DAA08CE
:1026D000AB09120C6F7402121F69EE2468F582EFC9
:1026E0003400F583E064807004747F8001E0F50CB1
:1026F000780C1221C1E50EF50C780C1221C1A90A43
:10270000AC08AD099003D0E0FA7B0012095D7402B9
:10271000121F6980139003A2E06408600BAC0CAD3B
:102720000DEEFAEFFB120CFF120DF579017F0A0294
:1027300020C274F512201674FC121F53EAFEEBFF40
:102740008908A2AFE433F509C2AF806AEE2463F8CA
:10275000EF3400F97A007B00A2AFE433F50AC2AF90
:1027600088828983E0FCA3E0FDEC4D603A88828991
:1027700083E0FAA3E0FB8A828B83E0FCA3E0FD8880
:10278000828983ECF0A3EDF08A828B83E4F0A3F0DE
:1027900088828983E0FCA3E0FDEC4D700A88828981
:1027A00083A3A3E4F0A3F0E50AA2E092AF1213170B
:1027B0009004E3E004F0EE2463F582EF3400F58347
:1027C000E0F8A3E0F9E849603DEE2463F582EF34D8
:1027D00000F583E02402FAA3E03400FBEA2402F5CA
:1027E0000AEB3400F50B780A1221BD8A828B83E054
:1027F000FCA3E0F9EEFAEFFB120C337402121F692E
:10280000E9700302274C9004E3E060639004E4E085
:10281000F89004E3E0C398500C740265087050907F
:1028200004E5E0604A8E828F83A3A3A3A3E085180A
:1028300082851983F0A3E4F09004E3E0F8740212B7
:102840001F9EE8F0A3E4F09004E3E0F89004E2E0D7
:1028500028F07402121F9EAC82AD83851882851900
:1028600083AA82AB8379011209699004E3E4F0E55D
:1028700009A2E092AF7404121F690223B90000009C
:102880008521878522C622C0E0C0D0E8C0E0E9C02B
:10289000E0EAC0E0EBC0E0ECC0E0EDC0E0EEC0E09C
:1028A000C008C009C00AC00BC082C083C0F0A2AF7C
:1028B000E433FEC2AF759B00906182E0A2E050124B
:1028C000E591A2E0500C7591FE7401652170031230
:1028D0002585E0A2E55051E591A2E5504B7591DFC9
:1028E0009003A2E064076005E0640870237401654A
:1028F00021703579019003D0E0FA75F003A4CAA8DD
:10290000F028FB74D22AFA74033BFB12273280189A
:10291000E0640D70139003C4E004F064287002E4D6
:10292000F07A00E0F9120DFB906182E0A2E640032C
:102930000229CEE591A2E640030229CE7591BF900F
:1029400003A2E064057008120D29120D35800312F0
:102950000D2F752100120D89E99003A3F079001263
:102960000D7D120B6D7A017B009003A1E0F912102E
:1029700053907803E064427055900544E014F07081
:102980004DC2AF12298600782AD0E0F618D0E0F6C2
:10299000E59F540770057509FF800375097FC4C062
:1029A000E07829E6F50808E65509F509740B78087A
:1029B000121F31D0E02508F8906270E0A2E740F8DD
:1029C000E8C333906272F0906270E0D2E0F0906100
:1029D00081E0A2E35009E5E9A2E3500375E9F7A31A
:1029E000E0A2E75009E591A2E7500375917FEEA2BE
:1029F000E092AFD0F0D083D082D00BD00AD009D0F3
:102A000008D0E0FED0E0FDD0E0FCD0E0FBD0E0FA62
:102A1000D0E0F9D0E0F8D0D0D0E032C0E0C0D0C0F3
:102A200082C083906183E0A2E05009E5BFA2E0503C
:102A30000375BFFEE0A2E15009E5BFA2E1500375B6
:102A4000BFFDE0A2E25009E5BFA2E2500375BFFB63
:102A5000E0A2E35009E5BFA2E3500375BFF7E0A28F
:102A6000E45009E5BFA2E4500375BFEFE0A2E550D2
:102A700009E5BFA2E5500375BFDFE0A2E65009E516
:102A8000BFA2E6500375BFBFD083D0828088C0E06C
:102A9000C0D0E8C0E0E9C0E0EAC0E0EBC0E0ECC0D4
:102AA000E0EDC0E0C0F0E5A7A2E6500FE5A1A2E688
:102AB000500953A7BF75A1BF122AF3E5A7A2E5509D
:102AC0000CE5A1A2E5500653A7DF75A1DFE5A7A29B
:102AD000E15009E5A1A2E1500375A1FDE5A7A2E23D
:102AE000500CE5A1A2E2500653A7FB75A1FBD0F064
:102AF000022A0474F81220167521019003A2E064E2
:102B0000067015120CC38A828B83A3A3A3A3A3A36D
:102B1000E0FAA3E0FB120D17A2AFE433FED2AF90B0
:102B200003A8E0640170187A207B009003A1E0F90B
:102B30001210FB7A207B009003A1E0F9121059904B
:102B40006182E0D2E6F0900541E0602185C62280F6
:102B5000169003A7E064017008E5C654F84405F533
:102B6000C653BEFC1228807401652160E4EEA2E029
:102B700092AF7F010220C2008E238F248582288598
:102B80008327851882851983E0CEA3E0CF8528822C
:102B9000852783EBC9EAC8EDCBECCA75F010C3E812
:102BA00033C8E933C9EA33CAEB33CBC3EA9EF5260F
:102BB000EB9FF525B35004AB25AA26EC33CCED33BF
:102BC000CDD5F0DAAE23AF242274ED1220168A0898
:102BD0008B098C0A8D0B7413121F9E780C121E2306
:102BE0007808790C1215247510017511C87512003A
:102BF00075130050127808790C121D977810790817
:102C000012152450168010780C7908121D97781030
:102C1000790C12152440047901800279007F0C029E
:102C200020C274ED1220168A088B098C0A8D0B7451
:102C300013121F9E780C121E23780C79081215248B
:102C400040117808790C121D97AA08AB09AC0AAD9F
:102C50000B80227510007511007512007513017834
:102C600010790C121D9778107908121D5EAA10AB0E
:102C700011AC12AD1380A68A828B837508FF75098B
:102C8000FF750AFF750B007808121DFD7F040220F6
:102C9000C274F51220168C828D837808121E238A46
:102CA000828B837808121DC3EA2404F8EB3400F900
:102CB0008C828D83A3A3A3A3E0FCA3E0FD8882897B
:102CC00083C3E09CF0A3E09DF088828983C3E094F5
:102CD00020A3E0944E40268A828B837508FF7509F5
:102CE000FF750AFF750BFF7808121D848A828B839B
:102CF000A3A3A3A3E02420F0A3E0344EF0022C779A
:102D000074F5122016E9FE9004F7E0FAA3E0FBEE5A
:102D1000C333F8E433F9749628F58274A539F58342
:102D2000E02AF508A3E03BF50978081221BD7A40B6
:102D30007B427C0F7D00122B787402121F698A0877
:102D40008B098C0A8D0B74107808121D26AA08AB0B
:102D5000097F040220C274F11220168A0C8B0D8C9C
:102D60000E8D0F740F121F9EE0FAA3E0FB74111278
:102D70001F9EE0F508A3E0F50978081221BDEA24BA
:102D800001F508EB3400F509E4F50AF50B780C7948
:102D900008121C36750871750902780C7908121C26
:102DA00036AA0CAB0DAC0EAD0F122B787402121FAD
:102DB000698B09EA450960047A0180027A00EC2AED
:102DC000FCED3400FD7413121F9EE0F8A3E0F9E857
:102DD000FEE9FFECF8EDF97A717B02121EC8880853
:102DE00089098E828F837808121E32ECF8EDF97A09
:102DF000717B02121EC88A088B0974057808121F9D
:102E0000408E828F83A3A3A3A3E508F0A3E509F076
:102E10007F080220C2C082C083E9906000F0D083A6
:102E2000D08222C2AF02000022C0E074F21221025E
:102E3000A2AFE433FED2AFE589A2E15003121275CE
:102E4000758900C2C5EEF8EEA2E092AF7F010221C3
:102E500061C0E074F2122102A2AFE433FED2AFE50A
:102E60008BA2E05003121275758B00C2E8EEF8EEEB
:102E7000A2E092AF7F01022161C0E0C0D0E8C0E0D3
:102E8000E9C0E0A2AFE433F8D2AFC2C7E8F9E8A2E4
:102E9000E092AFD0E0F9D0E0F8D0D0D0E032C0E09E
:102EA00074F21221027A1E7B0012149D758900C2F1
:102EB000C57A107B00900B95E0F9121053E97F0161
:032EC0000221618B
:102EC400FFFFFFFFFFFFFFFF74EE121FAA74FA1249
:102ED4001F538A0A8B0B8909ECFEEDFF75080085E8
:102EE4000A0C850B0D780C122201000410A5311573
:102EF4002F362F552F762F972FB82FEB2F0C3023EB
:102F04003051300F31303150317A31A531A5317C17
:102F1400307401650970158E828F83E0C394035069
:102F24000B8E828F83E0900D66F080037508180283
:102F340031CE7402650970138E828F83E0F8A3E0AA
:102F4400F9900D67E8F0A3E9F080037508180231E1
:102F5400CE7401650970158E828F83E0C39402508C
:102F64000B8E828F83E0900766F080037508180249
:102F740031CE7401650970158E828F83E0C3940588
:102F8400500B8E828F83E0900767F08003750818DA
:102F94000231CE7401650970158E828F83E0C3946B
:102FA40002500B8E828F83E0900768F080037508CF
:102FB400180231CE741065097027750C10750D0058
:102FC400780C1221BDEEFCEFFD7A697B07120FF934
:102FD4007402121F698A0C8B0D850C82850D838007
:102FE400037508180231CE7401650970158E828F3D
:102FF40083E0C39402500B8E828F83E0900779F0B4
:1030040080037508180231CE74016509700B8E8235
:103014008F83E0900D6AF080037508180231CE7436
:10302400046509702290A699780C121E238E828F53
:1030340083780C121534500F8E828F83121E4190A8
:10304400077B121E4D80037508180231CEE5097006
:1030540021120717E970131211BBE9F50C7950120C
:1030640013A1E9F50D1211A9800B90080E7401F05B
:1030740080037508180231CE7407650960030231B4
:1030840009750E06750F00780E1221BD8E828F838E
:10309400A3AC82AD837402121F9EAA82AB83120F6B
:1030A400FF7402121F698A108B1185100E85110F8F
:1030B4007C007D00851882851983AA82AB838E8269
:1030C4008F83E0F912114FE9F50CE50CC3940A5013
:1030D4002F120717E97015A90C1211C1E9F50D7922
:1030E400501213A1E9F50E1211A9801C750D00747C
:1030F4000F250CF5827408350DF5837401F08008F2
:1031040075080280037508180231CE7401650970D0
:10311400158E828F83E0C39402500B8E828F83E0DE
:1031240090077AF080037508180231CE740165099E
:1031340070158E828F83E0C3940A500B8E828F8326
:10314400E0900D69F08003750818807E74016509AC
:10315400701F8E828F83E0C3940740158E828F8305
:10316400E0C39411500B8E828F83E0900D6BF0803E
:1031740059750818805474016509702090080DE091
:10318400F50C8E828F83E090080DF0E50C703B9077
:10319400080DE0640170331211A9802E750818809F
:1031A40029C3E50A9427E50B9400501B74026509B2
:1031B40070158E828F83E0FCA3E0FDAA0AAB0B128C
:1031C40005B5E9F5088003750802A9087406121FFD
:1031D400697F0A02207C74EC121FAA74DA121F534E
:1031E400890D8A128B138C0A8D0B743A121F9EE080
:1031F400F50C90A65AC082C083851882851983ACC9
:1032040082AD83D083D0827406121E6685188285AF
:103214001983AC82AD83AA12AB13A90D12114FE925
:10322400FEEEC3940A4003023379EEF912118BE9DE
:10323400FF900D66E064027004740180027400F56E
:103244000878081221C1AD0CEFFCEEF9AA0AAB0B09
:103254001211FD7401121F697C147D00790074122F
:10326400121F9EAA82AB831210118A0E8B0F850E39
:1032740008850F097412121F9EAC82AD837A1075F3
:10328400F006EEA42424F912139BE970437C107910
:10329400FF7412121F9EAA82AB83121077E970305A
:1032A4007422121F9EAC82AD837A0475F006EEA4DC
:1032B4002425F912139BE9F5087412121F9EAC829F
:1032C400AD83EFA2E0E433F9AA0AAB0B12063FE99F
:1032D4007406121F9EAC82AD837A0C74702EF912A0
:1032E400139BE9707E7406121F9EAA82AB8312118F
:1032F4007F750E00E50EC394045068E50EA80E79A0
:1033040000E875F003A4C8AAF075F000A42AFA75C1
:10331400F003E9A42AF97406121F9EE58228F50831
:10332400E58339F509850882850983E0F8A3E0F986
:10333400E849602B850882850983A3A3E0F510750D
:10334400110078101221BD850882850983E0FCA351
:10335400E0FDAA0AAB0B1208A37402121F69E90567
:103364000E8091EFA2E1500D900765E0F9AA0AAB37
:103374000B1208A9E97404650C700F900D66E064E3
:10338400027007AA0AAB0B1211F779007426121FF8
:10339400697F0C02207C74F2121FAA890BEAFEEBEF
:1033A400FF8C088D09750A0AE50B600C146009147A
:1033B400604414606402343EEEFAEFFB12119DE99E
:1033C400F50AE50AC3940A5071E5084509606B756E
:1033D4000C06750D00780C1221BDEEFCEFFDAA0859
:1033E400AB09120FF97402121F698A0C8B0D850C3C
:1033F40082850D838044EEFAEFFB121197E9F50AFA
:10340400E50AC3940A5033E5084509602DAA08ABC0
:1034140009A90A121191E98021EEFAEFFB1211A316
:10342400E9F50AE50AC3940A5010E5084509600A5B
:10343400AA08AB09A90A121191E9A90A7F06022078
:103444007C74F2121FAA8A0C8B0DE9FE7F1574FF9F
:10345400650C700474FF650D702A750800E508C3D7
:10346400940A5014EEFC7A027B00A90812116DE94B
:1034740060027F00050880E5EE60637AE57B111247
:103484000AA7805AAA0CAB0D120A898A0A8B0B85EB
:103494000A08850B09E508450960417C007D00E5C3
:1034A400082405FAE5093400FB850882850983A30D
:1034B400A3A3A3E0F912114FE9F50AE50AC3940A9C
:1034C400500EEEFC7A027B00A90A12116DE97F000E
:1034D400EE600BAA08AB091211E580027F14EFF924
:1034E4007F0602207C74EE121FAA8A0E8B0F8C0AB0
:1034F4008D0B7412121F9EE0F50CA3E0F50D7508F8
:103504001574FF650E700474FF650F701E7E00EE67
:10351400C3940A5062AC0CAD0DAA0AAB0BEEF912BF
:103524001173E960037508000E80E4AA0EAB0F1254
:103534000A898A108B11AE10AF11EE4F60367C00F1
:103544007D00EE2405FAEF3400FB8E828F83A3A363
:10355400A3A3E0F912114FE9F509E509C3940A5050
:1035640016AC0CAD0DAA0AAB0BA909121173E975BF
:1035740008008003750814A9087F0A02207C74F7E8
:10358400121FAAEAFEEBFF90077FEEF0A3EFF09084
:103594000765E0FC7D007A267B001205B5E9F50895
:1035A400900765E0F912081F7F0102207C74F21273
:1035B4001FAA74EC121F538A0A8B0B850A82850B8F
:1035C40083A3A3E024FA7003023A1124FD700302DA
:1035D40038871470030236A414601024FD700302AB
:1035E400382F1470030238C7023A7FAE0AAF0B902B
:1035F400077FE0F8A3E0F9E849606990077FE0F805
:10360400A3E0F5838882E0F8A3E0F9E8496055EE89
:10361400240CF582EF3400F583E0F50878081221D4
:10362400C1EE240BF582EF3400F583E0F98E828F2E
:1036340083A3A3A3A3A3A3A3A3A3E0FCA3E0FDEEFE
:103644002403FAEF3400FB90077FE0F8A3E0F5834E
:103654008882E0F8A3E0F5838882121FA87401121F
:103664001F6980398E828F83A3A3A3A3A3A3A3A3DB
:10367400A31221D490077B121E4112065174021228
:103684001F69E9601879018E828F83A3A3A3A3A382
:10369400A3A3A3A3E0FAA3E0FB12064BE9023A7F3B
:1036A400AE0AAF0B8E828F83A3E060030237DD8EF8
:1036B400828F83A3A3A3A3A3E0A2E040030237DD88
:1036C400900819E0F8A3E0F9E84960030237DD7CCB
:1036D4000E7D007900851882851983AA82AB831236
:1036E40010118A088B09AA08AB09EE240CF582EFA5
:1036F4003400F583E0F8A3E0F9E849603B75080677
:1037040075090078081221BDEE240CF582EF34000F
:10371400F583E02410FCA3E03400FD7402121F9E24
:10372400AA82AB83120FF97402121F698A088B09EB
:1037340085088285098380548E828F83A3A3A3E0A6
:10374400FAA3E0FB120A898A0C8B0D850C08850DFF
:1037540009E50845096032750C06750D00780C12F0
:1037640021BDE5082405FCE5093400FD7402121F9F
:103774009EAA82AB83120FF97402121F698A0C8B02
:103784000D850C82850D838003023A7F8E828F83A0
:10379400A3A3A3A3A3E0A2E25004D2F08002C2F048
:1037A400A2F0E433F87900740C121F9EE048F0A3F1
:1037B400E049F0EEFCEFFD851882851983AA82ABFF
:1037C40083121185E970127A027B00900765E0F993
:1037D400121053E97900023A8190077FE0F8A3E0E0
:1037E400F9E849604390077FE0F8A3E0F583888215
:1037F400A3A3E0F8A3E0F9E849602D8E828F83A3A8
:10380400E0FC79018E828F83A3A3A3E0FAA3E0FBFB
:1038140090077FE0F8A3E0F5838882A3A3E0F8A3F0
:10382400E0F5838882121FA8023A7FAE0AAF0B909C
:10383400077FE0F8A3E0F9E849604590077FE0F8E6
:10384400A3E0F5838882A3A3E0F8A3E0F9E8496044
:103854002F850A82850B83A3E0FC79028E828F83F5
:10386400A3A3A3E0FAA3E0FB90077FE0F8A3E0F5AD
:10387400838882A3A3E0F8A3E0F5838882121FA8BB
:10388400023A7FAE0AAF0B7C007D00EE2404FAEF0F
:103894003400FB8E828F83A3A3A3E0F912114FE9B6
:1038A400F508E508C3940A5017EE240AFCEF340027
:1038B400FD7A0475F006E508A42425F9121395E9A8
:1038C400023A7FAE0AAF0B90077AE06018900D6958
:1038D400E0F98E828F83A3A3A3E0FAA3E0FB120690
:1038E4004BE9023A7F900D66E0701579058E828F60
:1038F40083A3A3A3E0FAA3E0FB12064BE9023A7FF9
:103904008E828F83A3A3A3E0FAA3E0FB120A898A21
:103914000C8B0D850C08850D098E828F83A3A3A3C0
:10392400A3A3A3A3E0A2E05075E5084509606C8554
:103934000882850983A3A3A3A3E060628E828F8398
:10394400A3A3A3A3A3A3A3A3A3E0F8A3E0F9E8C4B8
:10395400540FF879005401F8E95400F9E8A2E04062
:103964003D740E121F9EAC82AD83E5082405FAE572
:10397400093400FB850882850983A3A3A3A3E0F986
:1039840012114FE9701879038E828F83A3A3A3E0E9
:10399400FAA3E0FB12064BE9023A7F023A7FEE24D7
:1039A40005FCEF3400FD850882850983A3A3A3A346
:1039B400E0F98E828F83A3A3A3E0FAA3E0FB1211A4
:1039C400F190077FE0F8A3E0F9E849603E90077FB3
:1039D400E0F8A3E0F5838882A3A3E0F8A3E0F9E884
:1039E4004960287C0079008E828F83A3A3A3E0FA28
:1039F400A3E0FB90077FE0F8A3E0F5838882A3A30C
:103A0400E0F8A3E0F5838882121FA8806E120717DE
:103A1400E9706890080EE06401701A1211BBE9FEA7
:103A240090080E7400F07C0A7D0079007A0F7B0800
:103A3400121011803C7E00EEC3940A50348E087537
:103A44000900740F2508F58274083509F583E064CC
:103A540001701BEEF91211C1E9F88E0875090074A2
:103A64000F2508F58274083509F5837400F00E807B
:103A7400C679501213A1E9FE1211A9790174141226
:103A84001F697F0602207C74F3121FAA74F2121FAE
:103A9400538909EAFEEBFF8C0C851882851983ACE7
:103AA40082AD837A0E75F006E509A42420F9121379
:103AB4009BE970727C0679FF851882851983AA8236
:103AC400AB83121077E9705E740C121F9EE0F8A3AA
:103AD400E0F9E8F508E50C6005EE42088004EEF430
:103AE400520885080A750B00740C121F9EE0650AC3
:103AF4007004A3E0650B602AE508A8087900740C3B
:103B0400121F9EE508F0A3E9F0851882851983AC9D
:103B140082AD837A0E75F006E509A42420F9121308
:103B240095E9790180027900740E121F697F0502FC
:103B3400207C74F0121FAA74E6121F53890B8A0C9E
:103B44008B0DECFEEDFF740C121F9EAC82AD837ADC
:103B54000E75F006E50BA42420F912139BE960030B
:103B6400023C9A7C0679FF740C121F9EAA82AB83D6
:103B7400121077E96003023C9A851882851983AC98
:103B840082AD837A0C7470250BF912139BE96003E0
:103B9400023C96750A00851882851983AA82AB8334
:103BA40012117FE50C450D703A7C0C790085188262
:103BB400851983AA82AB83121077E96003023C70F3
:103BC4007C0C7D007900851882851983AA82AB83D9
:103BD4001210118A088B09850882850983750A01E8
:103BE400023C70851882851983AC82AD83AA0CAB24
:103BF4000D1211798A0E8B0F850E08850F09E508C1
:103C040045097036EE4F6021851882851983AC8290
:103C1400AD837A007B001211798A0E8B0FA80EA94E
:103C24000F88088909E84970047900806B85088247
:103C3400850983E50CF0A3E50DF0850882850983E9
:103C4400A3A3E0F87900EE687002EF69601EEE85C8
:103C54000882850983A3A3F0EE4F700D8508828541
:103C640009837400F0A37400F0750A01E50A602268
:103C7400851882851983AA82AB8312117F851882E5
:103C8400851983AC82AD837A0C7470250BF91213F9
:103C940095E9790180027900741A121F697F08027C
:103CA400207C74F7121FAAEAFEEBFF7B00EBC3949F
:103CB40004504EEBF87900E875F003A4C8AAF07537
:103CC400F000A42AFA75F003E9A42AF9EC28F58295
:103CD400ED39F583E06E7003A3E06F7021EBF879A2
:103CE40000E875F003A4C8AAF075F000A42AFA75D8
:103CF400F003E9A42AF9EC28FAED39FB80070B80DC
:103D0400AC7A007B007F0102207C74F7121FAA7F2B
:103D140000EFC394044003023DBDEFF87900E87559
:103D2400F003A4C8ACF075F000A42CFC75F003E912
:103D3400A42CF9EA28F582EB39F583E0F4FCA3E03E
:103D4400F4FDEFF87900E875F003A4C8AEF075F05F
:103D540000A42EFE75F003E9A42EF9EA28F582EBFF
:103D640039F583ECF0A3EDF0EFF87900E875F00392
:103D7400A4C8ACF075F000A42CFC75F003E9A42CE5
:103D8400F9EA28F582EB39F583A3A3E0F4C0E0EF68
:103D9400F87900E875F003A4C8ACF075F000A42C21
:103DA400FC75F003E9A42CF9EA28F582EB39F583D4
:103DB400A3A3D0E0F00F023D157F0102207C74F034
:103DC400121FAA74F4121F53EAFEEBFF8C088D092C
:103DD400900819E0F8A3E0F9E849702CEE4F60066A
:103DE400E50845097005790102407AEEFAEFFB1205
:103DF400119DE9900D6CF0900D6CE0C3940A40089D
:103E04001211AFE9900D6CF0900D6CE0C3940A4070
:103E140003024078900819E0F8A3E0F9E849600348
:103E2400023EC4EEFCEFFD7A0E75F006900D6CE0D8
:103E3400A42420F9121395E9F50C7C0C7D0079FF7C
:103E4400851882851983AA82AB831210118A0E8B7E
:103E54000F850E0A850F0B851882851983AC82ADF8
:103E6400837A0C900D6CE02470F9121395E9F50D2A
:103E7400750E0E750F00780E1221BDEEFCEFFD904D
:103E84000D6CE0F87900E875F00EA4C8AAF075F09E
:103E940000A42AFA75F00EE9A42AF9748128FA74A8
:103EA4000739FB120FF97402121F698A0E8B0FA8CF
:103EB4000EA90F900819E508F0A3E509F002407473
:103EC400900819E0F8A3E0C82406F582E83400F568
:103ED40083E0F8A3E0F9E8496043900819E0F8A307
:103EE400E0C82406F582E83400F583E0FCA3E0FD95
:103EF4007A1B75F006900D6CE0A42421F912139539
:103F0400E9F8900819E0F9A3E0C92406F582E93438
:103F140000F5837400F0A37400F002407490081953
:103F2400E0F8A3E0C8240AF582E83400F583E0F859
:103F3400A3E0F9E8496043900819E0F8A3E0C82435
:103F44000AF582E83400F583E0FCA3E0FD7A1B75F2
:103F5400F006900D6CE0A42422F9121395E9F89070
:103F64000819E0F9A3E0C9240AF582E93400F583CD
:103F74007400F0A37400F0024074900819E0F8A3F0
:103F8400E0C8240CF582E83400F583E0F8A3E0F9F6
:103F9400E8496043900819E0F8A3E0C8240CF582CE
:103FA400E83400F583E0FCA3E0FD7A1075F0069098
:103FB4000D6CE0A42423F9121395E9F8900819E094
:103FC400F9A3E0C9240CF582E93400F5837400F008
:103FD400A37400F0024074900819E0F8A3E0C82428
:103FE40008F582E83400F583E0F8A3E0F9E84960D5
:103FF4006F900819E0F8A3E0C82408F582E83400BB
:10400400F583E0FCA3E0FD7A1075F006900D6CE0FA
:10401400A42424F9121395E9F50A900819E0F8A3E9
:10402400E0C82408F582E83400F583E02410FCA3FA
:10403400E03400FD7A0475F006900D6CE0A42425AC
:10404400F9121395E9F8900819E0F9A3E0C92408D6
:10405400F582E93400F5837400F0A37400F0801055
:1040640090080DE060031212031211EB790180062F
:10407400790080027901740C121F697F0802207C88
:1040840074F7121FAA74F2121F53E9FE8518828571
:104094001983AC82AD837A0E75F006A42420F9123C
:1040A400139BE9700E740C121F9EE0F8A3E0F9E86C
:1040B400F980027900740E121F697F0102207C745A
:1040C400F4121FAA74F2121F538909EAFEEBFFE5EA
:1040D40009C3940A5004EE4F70047902804B85188A
:1040E40082851983AC82AD837A0E75F006E509A446
:1040F4002420F912139BE9F508E508702A750A06CD
:10410400750B00780A1221BD7402121F9EAC82AD99
:1041140083EEFAEFFB120FF97402121F698A0A8BFD
:104124000B850A82850B83A908740E121F697F040C
:1041340002207C74F4121FAAEAFEEBFF750800E566
:1041440008C3940A5045750A06750B00780A1221B3
:10415400BDEEFCEFFDE508A8087900E875F00EA4B3
:10416400C8AAF075F000A42AFA75F00EE9A42AF999
:10417400748728FA740739FB12100B7402121F6932
:10418400E96004A9088006050880B4790A7F04025E
:10419400207C74F4121FAAEAFEEBFF750800E50800
:1041A400C3940A5045750A06750B00780A1221BD9E
:1041B400EEFCEFFDE508A8087900E875F00EA4C848
:1041C400AAF075F000A42AFA75F00EE9A42AF9748D
:1041D4008128FA740739FB12100B7402121F69E963
:1041E4006004A9088006050880B4790A7F040220C7
:1041F4007C74F7121FAA74F0121F53EAFEEBFF75CA
:104204000800E508C3940A504B851882851983ACCD
:1042140082AD837A1075F006E508A42423F91213FD
:104224009BE9702C7C1079FF851882851983AA82FA
:10423400AB83121077E97018EEFCEFFD85188285C8
:104244001983AA82AB83120621E97004A9088006A7
:10425400050880AE790A7410121F697F0102207C60
:1042640074F4121FAA750800E508C3940A400302F7
:104274004346E508A8087900E875F00EA4C8AAF03A
:1042840075F000A42AFA75F00EE9A42AF9748128BD
:10429400FC740739FD7A0E75F006E508A42420F9AC
:1042A40012139BE970030243417C067D0079FFE50C
:1042B40008AA087B00EA75F00EA4CAA8F075F000FD
:1042C400A428F875F00EEBA428FB74812AFA74076D
:1042D4003BFB1210118A0A8B0BAE0AAF0B7C067DD6
:1042E4000079FFE508AA087B00EA75F00EA4CAA8C5
:1042F400F075F000A428F875F00EEBA428FB748781
:104304002AFA74073BFB1210118A0A8B0BAC0AAD14
:104314000BE508A8087900E875F00EA4C8AAF075A2
:10432400F000A42AFA75F00EE9A42AF9748D28F590
:1043340082740739F5837400F0A37400F005080251
:10434400426C90080DE060031212031211EB7F041B
:1043540002207C74F7121FAA7E00EEC3940A503226
:104364007C0679FFEEFA7B00EA75F00EA4CAA8F089
:1043740075F000A428F875F00EEBA428FB74812ACC
:10438400FA74073BFB121077E96004EEF980050E1E
:1043940080C8790A7F0102207C74F7121FAA7E006C
:1043A4007F00EFC3940A502F7C0679FFEFFA7B005D
:1043B400EA75F00EA4CAA8F075F000A428F875F008
:1043C4000EEBA428FB74812AFA74073BFB121077C6
:1043D400E970010E0F80CBEEF97F0102207C74F7A7
:1043E400121FAA7E007F00EFC3940A500DEE700ADC
:1043F400EFF91211C1E9FE0F80EDEEF97F01022001
:104404007C74F0121FAA74CB121F538909900D6C8F
:10441400E06509701D7A017B00900765E0F91210D0
:1044240059E97A027B00900765E0F9121059E91204
:10443400120F7427121F9EAC82AD837A0E75F0069C
:10444400E509A42420F912139BE960030245717C59
:104454000679FF7427121F9EAA82AB83121077E994
:1044640060030245717C0E7D0079FF7427121F9E44
:10447400AA82AB831210118A0A8B0B850A0C850B56
:104484000D7C1B7D0079FF740C121F9EAA82AB83E6
:104494001210118A0E8B0F850E0A850F0B7C0C7D72
:1044A4000079FF851882851983AA82AB83121011C3
:1044B4008A0E8B0FAE0EAF0F7427121F9EAC82AD07
:1044C400837A0E75F006E509A42420F9121395E900
:1044D400F508740C121F9EAC82AD837A1B75F0062E
:1044E400E509A42421F9121395E94208740C121F5A
:1044F4009EAC82AD837A1B75F006E509A42422F9EB
:10450400121395E94208740C121F9EAC82AD837A93
:104514001075F006E509A42423F9121395E942085D
:10452400740C121F9EAC82AD837A1075F006E509F7
:10453400A42424F9121395E94208740C121F9EACAA
:1045440082AD837A0475F006E509A42425F91213D3
:1045540095E94208851882851983AC82AD837A0C6B
:1045640074702509F9121395E9420880037508004F
:10457400A9087435121F697F0802207C74F7121F82
:10458400AAE9FE900765F01211A97F0102207C744C
:10459400F2121FAA890AEAFEEBFFEE5400F8EF5468
:1045A40080F9E8496035900765E0F912103B8A0C00
:1045B4008B0DA80CA90D88088909E8496012AA087E
:1045C400AB091211D3E96008AA08AB09121029E952
:1045D400EE6400FAEF6480FB024697EE5402602D0D
:1045E4007C007D007A007B00121185E960187A0155
:1045F4007B00900765E0F9121053E9EE6402FAEFCC
:104604006400FB0246977A027B00024697EEA2E022
:10461400507D900819E0F8A3E0F5838882A3A3A352
:10462400E0FAA3E0FB121209E9605E90077FE0F86C
:10463400A3E0F9E849604590077FE0F8A3E0F5833B
:104644008882A3A3E0F8A3E0F9E849602F7C00790D
:1046540001900819E0F8A3E0F5838882A3A3A3E0FE
:10466400FAA3E0FB90077FE0F8A3E0F5838882A338
:10467400A3E0F8A3E0F5838882121FA812120FEEBC
:104684006401FAEF6400FB800A7A017B0080047AFB
:10469400007B007F0602207C74F7121FAAEAFEEB5F
:1046A400FF7508018E828F83E02450601314601913
:1046B40024E1701CEEFAEFFB121167E9F508801093
:1046C400EEFAEFFB1211D98007EEFAEFFB1211DFBD
:1046D400A9087F0102207C74F7121FAAEAFEEBFFEF
:1046E4008E828F83A3A3A3A3E0641E701179008E2E
:1046F400828F83A3A3E0FAA3E0FB121155E97F01A3
:1047040002207C74F6121FAAEAFEEBFF8E828F83CE
:10471400A3A3A3A3E0703A8E088F098508828509B4
:1047240083A3A3A3A3A3A3A31221D48508828509E9
:1047340083A3A3A3A3A3E0FCA3E0FD8508828509CA
:1047440083A3A3E0FAA3E0FB12115B7402121F69B6
:10475400E97F0202207C74F7121FAAEAFEEBFF90A5
:104764000765E0F98E828F83A3E0FAA3E0FB1208C9
:10477400A9E97F0102207CC082C08374FF121F5309
:104784001211B5E9C39402400B851882851983740C
:1047940002F08009851882851983740AF0851882CD
:1047A400851983AC82AD837A01790512072FE974E8
:1047B40001121F69D083D08202012274F2121FAA4F
:1047C40074E8121F53EAFEEBFF890A8C088D097CFA
:1047D400187D007900851882851983AA82AB83121B
:1047E40010118A0C8B0DAC0CAD0D851882851983C4
:1047F400EEF0A3EFF0900767E0C0E07402121F9E92
:10480400D0E0F0900768E0C0E07403121F9ED0E08F
:10481400F0900D6BE0C0E07417121F9ED0E0F074AE
:1048240015121F9EE054FEF8A3E054FFF9900D6AA0
:10483400E0A2E0E433FA7B00E84AF8E94BF97415A6
:10484400121F9EE8F0A3E9F0900D6AE0A2E1500483
:10485400D2F08002C2F07415121F9EE054FDFAA338
:10486400E054FFFBA2F0E433F87900C333F8E933F2
:10487400F9EA48F8EB49F97415121F9EE8F0A3E928
:10488400F0900D6AE0A2E35004D2F08002C2F0740A
:1048940015121F9EE054F7FAA3E054FFFBA2F0E4C4
:1048A40033F50C750D007403780C121F40EA450CA7
:1048B400F8EB450DF97415121F9EE8F0A3E9F0908A
:1048C4000D6AE0A2E45004D2F08002C2F074151222
:1048D4001F9EE054EFFAA3E054FFFBA2F0E433F58B
:1048E4000C750D007404780C121F40EA450CF8EBAB
:1048F400450DF97415121F9EE8F0A3E9F0900D6AB6
:10490400E0A2E55004D2F08002C2F07415121F9E9A
:10491400E054DFFAA3E054FFFBA2F0E433F50C7596
:104924000D007405780C121F40EA450CF8EB450D98
:10493400F97415121F9EE8F0A3E9F0900D6AE0A245
:10494400E25004D2F08002C2F07415121F9EE054AB
:10495400FBFAA3E054FFFBA2F0E433F50C750D0061
:104964007402780C121F40EA450CF8EB450DF974FB
:1049740015121F9EE8F0A3E9F0900768E0602A751D
:104984000C10750D00780C1221BD7C697D0774062E
:10499400121F9EAA82AB83120FF97402121F698A36
:1049A4000C8B0D850C82850D83900779E06012E5F0
:1049B4000A600E7415121F9EE04402F0A3E0440046
:1049C400F0900779E0600678017900800478007936
:1049D400007414121F9EE048F0900766E0600678A9
:1049E4000479008004780079007414121F9EE04852
:1049F400F0AC08AD09851882851983AA82AB8312AD
:104A04000645E97418121F697F0602207C74F712A8
:104A14001FAAEAFEEBFF750800900779E0600678AC
:104A2400017900800478007900E84208900766E084
:104A3400600678047900800478007900E84208A9C7
:104A440008EEFAEFFB1206FFE97F0102207C74EE08
:104A5400121FAA74E5121F538A0C8B0DE9FF8C08F0
:104A64008D09742D121F9EE0F50A74086509700AF9
:104A740075F006EFA42422FE800875F006EFA42446
:104A840021FE7C1B7D007900851882851983AA820A
:104A9400AB831210118A108B1185100E85110F85AE
:104AA4001882851983AC82AD837A1BEEF912139BAD
:104AB400E9703C741A121F9EE0C394074031741AC3
:104AC400121F9EE0C394115026E50AF50B780B12D1
:104AD40021C17401121F9EAC82AD83E508A2E0E4FB
:104AE40033F9AA0CAB0D1206577401121F69E9744D
:104AF4001B121F697F0A02207C74F7121FAA120975
:104B040021E97E00EEC3940A50557C0679FFEEFA43
:104B14007B00EA75F00EA4CAA8F075F000A428F88A
:104B240075F00EEBA428FB74812AFA74073BFB1280
:104B34001077E97027EEF87900E875F00EA4C8AA9A
:104B4400F075F000A42AFA75F00EE9A42AF974812C
:104B540028FA740739FB7900120927E90E80A57F2A
:104B64000102207C74F6121FAA74FD121F53EAFE80
:104B7400EBFF90081BE0F8A3E0F9E84970397508E9
:104B84001D75090878081221BD7508027509007899
:104B9400081221BD7508407509A778081221BD7C4B
:104BA400FF7DFF7A017B001207717406121F699062
:104BB400081BEAF0A3EBF090081BE0F8A3E0F9E887
:104BC400497003024C89E4F508F50978081221BDFF
:104BD4007404121F9E85820885830978081221BDFA
:104BE4007404121F9E85820885830978081221BDEA
:104BF40090081D1221D4790290081BE0FCA3E0FD6B
:104C0400EEFAEFFB1208977408121F69E9704A85DF
:104C14001882851983E0FA7B007401121F9EE0F864
:104C24007900E4C8F9EA28F508EB39F509E50845FF
:104C340009602678081221BD90081BE0F8A3E0F56E
:104C4400838882A3A3A3A3E0FCA3E0FDEEFAEFFB19
:104C540012115B7402121F69E9E4F508F50978087A
:104C64001221BD90081D1221D47CFF7DFF90081BEA
:104C7400E0FAA3E0FB12077D7404121F6990081B7D
:104C8400EAF0A3EBF090081BE0F8A3E0F9E8497020
:104C9400047901800279007403121F697F020220E3
:104CA4007CC082C083900819E0F8A3E0F9E8496069
:104CB40017900819E0FAA3E0FB121029E9F890080C
:104CC400197400F0A37400F0900D6C740AF0D08392
:104CD400D082020122C082C083E9900C7AF0024F94
:104CE4006874F7121FAAE99002E1F07C197D037A37
:104CF400FF7BFF1208AF9002E274FFF0A3F0A3E47D
:104D0400F0A3F079051208379002E1E0F91207598F
:104D14007ACD7B08120A777F0102207C74F4121F7B
:104D2400AA8A088B09EB548060309002E1E0F91202
:104D3400103B8A0A8B0BAE0AAF0BEE4F60138E82C8
:104D44008F83E064B0700312084FEEFAEFFB121089
:104D540029AA08E5096480FB80047A007B00024FDD
:104D64003774F2121FAA74FC121F53EAFEEBFFEE13
:104D74004F60387402121F9EEEF0A3EF12519CECA8
:104D8400F0A3ED12519CAA82AB83120753E9F508F4
:104D940070737412121F9E125D50E50A450B606514
:104DA4008E828F83124E13EE4F7005750802805564
:104DB4007A067B001210B38A0C8B0DA80CA90DE89F
:104DC400497005750813803D88828983E4124E1D5D
:104DD400A3A3EEF0A3EF1261E9E50AF0A3E50BF05B
:104DE4009002E7124EA59002E76017E0FCA3E08072
:104DF40003EAFCEBFD8C828D83124EA570F38C824A
:104E04008D83125C75A9087404121F690263EBA3F5
:104E1400A3A3A3E0FEA3E0FF22F0A3F0888289838A
:104E24002274F2121FAA890AE975F017A4FEAFF0E2
:104E34009002E6E4F09002E4124EA5600A1210B962
:104E44009002E4E4F0A3F0EEFAEFFB1210B38A0848
:104E54008B09EA4509602FEEFCEFFD790012101171
:104E64009002E4E508F0A3E509F07B008008124E07
:104E74008FE4F0A3F00BEBC3950A40F2E50A90022D
:104E8400E6F07900800279130263EBEB75F017A466
:104E9400F8A9F09002E4E028FAA3E0398A82F583C5
:104EA40022125A0BEA4B2274F4121FAA75080075D9
:104EB4000900740C121F9E1261BDFEE9FF800CE50F
:104EC400082401F508E5093400F509C3E5089CE563
:104ED400099D503285080A85090B7403780A121F4C
:104EE40040EA250AF8EB350BF988828983A3A3A34A
:104EF400A3A3A3125D50EE650A7003EF650B70BFA8
:104F0400E8FAE9FB80047A007B00802774F4121F1E
:104F1400AA7900EAA2E0501B7508667509A678080C
:104F24001221BD7C047D007A7C7B0C120831740252
:104F3400121F697F0402207CC082C0839002E712A2
:104F44004F6F601C88828983A3A3E06A7003A3E087
:104F54006B8882898370E8A3A3A3A3125A078004F1
:104F64007A007B00D083D0820201221264BEE84919
:104F74002274EE121FAA74FC121F53EAFEEBFF8583
:104F84001882851983E4F0A3F0EE2402125C59EE32
:104F9400240512518AEE2404F50EEF12556FE02415
:104FA400FE603924FC604624FE605224FE605E24C8
:104FB400FE700302508F24FE700302510724FE701A
:104FC4000302511624FE700302512524FC700302CF
:104FD400513424FE70030251430251809003007443
:104FE40017F0A3E41251A41204D10251808518824F
:104FF400851983AC82AD83120855025150851882FD
:10500400851983AC82AD8312085B025150850C086C
:10501400850D097402121F9EAC82AD8385088285BA
:105024000983125A071207778A0C8B0DAC0CAD0D4D
:10503400EC4D6042E4F50CF50D780C1221BD750CB5
:1050440000750D03780C1221BD750C01750D0378E4
:105054000C1221BD7408121F9E1221D47916125A03
:10506400011208977408121F69E9F50C700B1259A4
:10507400FD1204E9800F750C0185088285098312ED
:105084005192125C75850C080251537402121F9ED2
:10509400AC82AD83850C82850D83125A0712077783
:1050A4008A108B11AC10AD11EC4D6043850C8285D8
:1050B4000D83A3A31221D475100075110378101267
:1050C40021BD75100175110378101221BD740812E9
:1050D4001F9E1221D47916125A01120897740812CD
:1050E4001F69E9F509700B1259FD1204EF800F7561
:1050F4000901850C82850D83125192125C75850914
:1051040008804C851882851983AC82AD83120861AE
:10511400803A851882851983AC82AD831208678032
:105124002B851882851983AC82AD8312086D801C8F
:10513400851882851983AC82AD83120873800D852E
:105144001882851983AC82AD83120879E9F508E5E4
:105154000860298E828F83A3E06414601F850E8209
:10516400850F83E090030012519C1264BA900301EE
:10517400125C75E508A31251A41204CBEEFAEFFBFE
:105184001207F5025B61F50CEF3400F50D22126491
:10519400BE85188285198322F08518828519832299
:1051A400F07C007D03850A82850B83125A0B2274DE
:1051B400EE121FAA74FC121F538A0A8B0B8C0E8DDD
:1051C4000FEA2405F508EB3400F5097C157D007918
:1051D400007A007B03121011E5082402F50CE5099E
:1051E40012518D85188285198385821085831178E3
:1051F400101221BD850882850983A3A3A3A3125697
:10520400B71221BDE5082405F510E5093400F511B0
:1052140078101221BD850C82850D83125A11120754
:10522400717406121F698A108B11AE10AF11E50A52
:105234002402F50AE50B125C5CEE4F70030253790D
:1052440080177402121F9E125A0788828983EAF01B
:10525400A3EBF0900300E004F0900300E0C3940596
:105264004003025379E4F510F51178101221BD754D
:1052740010E975110278101221BD7510EA7511023A
:1052840078101221BD7406121F9E1221D47910EEDB
:10529400FCEFFD125A011208977408121F69E97095
:1052A4005E850882850983A3A3A3A3A3A3A3E0F82F
:1052B4009002E9E06870481256B71221BD7CEA7D7D
:1052C40002E5082408FAE5093400FB12100B740205
:1052D400121F69E960298E828F83A3A3A3A3125AA4
:1052E40007900300E0F51074027810121F40740157
:1052F4002510F58274033511F583EAF0A3EBF074FD
:1053040002121F9E85821085831178101221BD74AC
:1053140002121F9E1221D4850C82850D831264CF44
:1053240012077D7404121F698A108B11AE10AF111D
:10533400900300E0F51075110074027810121F40FC
:1053440074002510F874033511F988828983A31237
:105354004EA5700302523DE82403F8E93400F9EE47
:105364004F60030252468882898374FFF0A3F09051
:105374000300E004F0900300E0600A1259FD1204F7
:10538400DD7900800B850882850983125C6C790ABB
:10539400025B6174EA121FAA74FE121F538C128DF1
:1053A40013EA2405F50CEB126639124E1775080042
:1053B400750900EA2402F510EB3400F51185188212
:1053C40085198385820A85830B780A1221BD850C91
:1053D40082850D83A3A3A3A31255791221BDE50CE5
:1053E4002405F50AE50D125C5C780A1221BD850CD2
:1053F40082850D831264CD1207717406121F698AA7
:105404000A8B0BEA450B700302552AEA2404F50EB5
:10541400EB12556F124E178A828B83A3A3A3E0F974
:10542400851082851183125A0712075FE9F5096016
:105434000302552AE4F514F51578141221BD7514E8
:10544400E975150278141221BD7514EA75150278F0
:10545400141221BD7406121F9E1221D47913AC0AB2
:10546400AD0B851082851183125A071208977408B0
:10547400121F69E9F509600302552A9002E9E0F870
:10548400E5087009E02402900301F08017900301FD
:10549400E0FCE82402FAE43400FBEA6C7001EB60FF
:1054A4000302552E850882AA821256AE941412560F
:1054B400A65073850E82850F83E0C0E074022A1221
:1054C4005566D0E0F00508850E82850F83A3E0C001
:1054D400E085080A7402250A125566D0E0F0050832
:1054E4009002E91255791221BD7CEA7D0285080AF1
:1054F4007402250AFA74033400FB120FF9740212C1
:105504001F699002E9E02508F50874FF6E700374C2
:10551400FF6F6012EE24010EEF3400FFE508C39420
:105524001450030253C1E50860131258F285108227
:10553400851183125A071204E379008014E5097077
:105544000375090A851282851383EEF0A3EFF0A98F
:10555400097402121F697F0E02207C85080C7402F4
:10556400250CF58274033400F583223400F50F858D
:105574000E82F583221261FC2274EE121FAA74FEBD
:10558400121F538C0E8D0FEA2405F50CEB12518D6E
:10559400750B00900300E4F0F50AEA2402F508EB29
:1055A4003400F5098049900300E0FA9002E9E0F83C
:1055B4001256AE94171256A6400D900300E0F874EC
:1055C40016C3989002E9F01256B71221BD7CEA7D09
:1055D4000274012AFA74033400FB120FF9740212E4
:1055E4001F699002E9E0F8900300E028F0050AE55D
:1055F4000C2416F582E50D12556AE0F8E50AC39805
:10560400400302568F900300E0C39416507DE50AD0
:10561400C333F8E433F9E50C28FEE50D39FF8518AA
:1056240082851983AC82AD838E828F83125A0712CE
:1056340007778A108B11AC10AD11EC4D7005750B0A
:10564400018043E4F510F51178101221BD7510E9BD
:1056540075110278101221BD7510EA7511027810C7
:105664001221BD7406121F9E1221D4791685088258
:10567400850983125A071208977408121F69E9F5FD
:105684000B70030255AA125C6880107C007D0385B0
:105694000882850983125A071204F5A90B740202C1
:1056A4005B63E99400C365D03322EA28F8E434004C
:1056B400F9E822E0F51075110078102274EA121F3F
:1056C400AA74FC121F538A0C8B0D8C128D13EA24BE
:1056D40005F50AEB125C5C750800750900E50A24FF
:1056E40002F510E50B3400F5117402121F9E858239
:1056F4000E85830F780E1221BD850A82850B83A344
:10570400A3A3A31261A81221BDE50A2405F50EE5A1
:105714000B3400F50F780E1221BD8510828511839C
:10572400125C62125A011207717406121F698A0E02
:105734008B0FAE0EAF0FE50C2402F50EE50D340011
:10574400F50F80408882898374FFF0050812555F45
:1057540074FFF005089002E9E0F50C750D00780C73
:105764001221BD7CEA7D0285080C7402250CFA74B2
:10577400033400FB120FF97402121F699002E9E06E
:105784002508F508EE4F60718E828F83A3A3A3E0F2
:10579400F9850E82850F83125A0712075FE9F5090E
:1057A400EE240412518AE97044E4F514F5157814D2
:1057B4001221BD7514E975150278141221BD7514F2
:1057C400EA75150278141221BD7408121F9E122165
:1057D400D47911EEFCEFFD850E82850F83125A07F2
:1057E4001208977408121F69E9F5096027850C826D
:1057F400850D831258E8125C75E50870030258CED3
:105804001258F2850E82850F83125A071204FB790F
:10581400000258E3850882AA82EA9002E97009E04E
:105824002404900301F08022E0F8900301E0F514D1
:10583400E82404FCE43400FDEC65147001ED70C050
:105844001256AE94121256A650B6850C82850D835C
:10585400E0C0E074022A125566D0E0F00508850C19
:1058640082850D83A3E0C0E012555FD0E012590495
:1058740085820C85830D780C1221BD7404121F9E41
:105884001221D48510828511831264CF12077D748E
:1058940004121F698A0C8B0DAE0CAF0D85080C74B5
:1058A40002250CF874033400F9EE4F7003025748D4
:1058B400851882851983E088828983125904A3E0BC
:1058C400C0E012555FD0E0025756E5097003750930
:1058D4000A850A82850B831258E8125C75A909743B
:1058E400040255571264BE851282851383229003E5
:1058F40001E0F5F0E50884900300F07C007D0322CC
:10590400F005088518828519832274EC121FAA7485
:10591400FE121F538A088B098C0E8D0FEA2405FE94
:10592400EB3400FF851882851983AC82AD838E82A7
:105934008F83125A071207778A0A8B0BEE241812E8
:10594400518AEA450B70030259D8125B4A503285DA
:105954001882851983125A0712088B8A108B11EA50
:105964004511606B7912AC0AAD0B850882850983F9
:10597400125A07851082851183121FA8E9F50A704F
:1059840058E4F50AF50B780A1221BD8E828F83A3A1
:10599400A3E0F50A780A1221BDEE2403125C5978BB
:1059A4000A1221BD8E828F83125A1112089D740629
:1059B400121F69E9F50A7021850C82850D83E07058
:1059C4001F850882850983125A0712050180117503
:1059D4000A0E8009750A018004E50A6003125C68F6
:1059E400850C82850D83E0600479008002A90A7425
:1059F40002121F697F0C02207C7C007D03850A82D1
:105A0400850B83125A0B22E0FAA3E0FB22E0FCA3ED
:105A1400E0FD850882850983125A0B2274EE121F59
:105A2400AA74FE121F538A088B098C0C8D0DEA246C
:105A340005FEEB3400FF750E00851882851983ACD2
:105A440082AD838E828F83125A071207778A0A8B5C
:105A54000BEA450B7003025B36125B4A503585181E
:105A640082851983125A0712088B8A0E8B0FEA4516
:105A74000F605E7912AC0AAD0B850882850983122A
:105A84005A07850E82850F83121FA8E9F50E60035D
:105A9400025B39850882850983125D50AA0AFB12CC
:105AA400087F8A108B11A810A911E849701E7AFF8B
:105AB4007BFF12087F8A108B11A810A911E8496096
:105AC4006C88828983E50AF0A3E50BF0750A0080EF
:105AD40007750E0E805F050A9002E6E0FAE50AC338
:105AE4009A504AE50A75F017A4FAABF088828983C4
:105AF400A3A3E02AFAA3E03BFB8A828B83125C62B5
:105B0400EC4D70D2750A17750B00780A1221BDEEA0
:105B1400FCEFFD120FF97402121F69EEFCEFFD8514
:105B24000882850983125A071205078014750E0925
