:020000040000FA
:0600000002010A0222A722
:03002B000226E6C4
:0300530002231A6B
:03006B0002270B5E
:10008300022113E5C754F84401F5C77901220000A2
:100093000080FB120086B900030200F4E4792178A2
:1000A30008B800028004F709D8FCE479297802B87B
:1000B30000028004F709D8FCE490028178C879072C
:1000C3008002F0A3D8FCD9FA900948AA82AB8390A6
:1000D300013A788A79048015E493A3AC82AD838ACC
:1000E300828B83F0A3AA82AB838C828D83D8E9D9D8
:1000F300E775823F7583C9740312011C758291757C
:100103008300740012011C75D00075813F7518813E
:10011300751902759F00020096C09FF59FE473D086
:100123009F22D083D082C09FE493C0E0740193C028
:10013300E0740293F59F22FF0000B400002800281A
:1001430000283075A000A000A000A000000800084F
:10015300E001F0001000100010001000100010006B
:1001630050005000500010001000D00700000000A5
:1001730000000F00010005003075070010000100AA
:1001830081FF00000000FFC106DF06C706FF020271
:100193000208025000A0000000E80302CA81010027
:1001A30000A68102BA810100009F0902AE8101000D
:1001B30000B30202BA81010000A00902B08101006C
:1001C30000C90202BA81010000A10902B281010043
:1001D30000CB0202BA81010000A20902B481080027
:1001E30000CC0202BA81010000A30902B68101001A
:1001F30000A409FF0100FF2002CA81010000A081C1
:1002030002BA81010000080A02B881000000000060
:1002130002AC810300001903910C910C910C910C19
:10022300910C910C910C910C910C910C910C910CE3
:10023300910C130F2B0F0D0FFFFF0202020202029C
:10024300020202010D000000100102CA8101000038
:10025300A98102BA810100004B0A02D68101000084
:100263005D0702BA810100004C0A02D4810100003B
:10027300158102BA810100004D0A02D281010000FA
:10028300F98002BA810100004E0A02D08101000008
:10029300B78002BA810100004F0A02CE810100003B
:1002A300938002BA81010000500A02CC8101000050
:1002B300A58002BA81010000510A02DE810100001B
:1002C300818002BA81010000520A02BE810100004E
:1002D300078102BA81010000530A02BC81010000B8
:1002E300540A01E803053F100A0A536574204C6F52
:1002F3006E67205465726D204D6F646500000A0AB5
:1003030053616D706C696E67205261746500000AF9
:100313004461746520616E642054696D6500000258
:10032300CA81010000A38102BA81010000FA0A0216
:10033300C4810300007B08022A81010000FB0A023A
:10034300BA810100000F0B02C681030000100B02EB
:100353002A81010000110B02BA81010000200B0267
:10036300C8810300007C08022A81010000210BFFE1
:1003730000013075030201060000000000000000C8
:10038300000000000000000000000000000000006A
:1003930000000000FFFF0600800CE8031409446915
:1003A3006D706C65424C4550657269706865726129
:1003B3006C051250002003020A000201050302F03B
:1003C300FF44696D706C6520424C4520506572692D
:1003D30070686572616CC9130000D513F3130A4387
:1003E3006861726163746572697374696320310053
:1003F300024368617261637465726973746963202F
:100403003200084368617261637465726973746969
:1004130063203300104368617261637465726973AA
:1004230074696320340002436861726163746572A6
:10043300697374696320350002CA810100009D81DC
:1004430002BA81010000EF0B02E2810300003909C7
:10045300022A81010000F00B02BA81010000010CA5
:1004630002E4810100003A09022A81010000020C22
:1004730002BA81010000130C02E6810200003B096D
:10048300022A81010000140C02BA81010000250C2C
:1004930002E8810000003C0902AC810300003D0931
:1004A300022A81010000260C02BA81010000370CE8
:1004B30002DA810400004309022A81010000380C9A
:1004C30012012532FE0212012549FE021201257A8C
:1004D300FE02120125B5FE02120125DFFE02120102
:1004E3002509FF0212012520FF0212012537FF0211
:1004F3001201254EFF0212012577FF021201258A00
:10050300FF02120125A0FF02120125B3FF0212010F
:1005130025DAFF0212012582CB0212012586CC02C5
:10052300120125BECC02120125E1CC02120125ECF9
:10053300CC021201250FCD021201251ECE0212019B
:1005430025F3CE021201256ECF02120125F6CF024A
:1005530012012531D00212012568D002120125F6BD
:10056300D002120125CFD1021201252FD20212018E
:10057300253AD202120125B9D202120125BCD202B8
:10058300120125BFD2021201254ED30212012551B9
:10059300D30212012581D302120125ABD30212012A
:1005A3002599D4021201254BD502120125F68403A5
:1005B3001201251E85031201254C85031201258393
:1005C3008503120125E185031201252C86031201FF
:1005D30025778603120125B78603120125FD8603BD
:1005E3001201252B8703120125E88703120125F247
:1005F3008703120125FF87031201253288031201A5
:1006030025FE88031201250A890312012522890385
:100613001201252C8903120125F1C303120125FFC1
:10062300C30312012517C4031201252FC4031201AA
:100633002576DD0112012522DE011201259DDE0151
:10064300120125BEDF01120125FADF01120125A3E4
:10065300E0011201258AE101120125EEE2011201F6
:100663002545E301120125C6E301120125B6E40184
:1006730012012503E50112012589E501120125BBBC
:10068300E501120125CFE70112012511E80112014D
:10069300252FE801120125B2E80112012586E9019F
:1006A3001201254EEA01120125D1E402120125A40B
:1006B300E5021201254DE602120125A0E602120110
:1006C3002550E702120125DCE702120125C8E802E2
:1006D300120125F7E8021201250AEA021201255246
:1006E300EA0212012527EB0212012563EB02120134
:1006F300257FEB0212012539C8031201254F9F0301
:10070300120125659F031201258B9F03120125A763
:10071300A003120125B1A003120125E6A1031201D2
:1007230025DEA203120125D3FA0112012503FC01E0
:1007330012012536FC0112012580FC011201254717
:10074300FE0112012525BE011201258FBE011201F2
:1007530025EEBF01120125FEBF011201252BC001A9
:1007630012012582C0011201252BC101120125327C
:10077300C201120125FCC2011201255CC401120150
:10078300259FC40112012544C50112012591C5010C
:10079300120125B7C501120125C5C701120125CADA
:1007A300C701120125CFC9011201251CCA0112017B
:1007B300258FCA01120125C2CA0112012564CB018A
:1007C3001201250DCC0112012545CC01120125484A
:1007D300CC0112012590CC01120125D0CC011201CC
:1007E3002527CD011201252BAF0312012543AF03AA
:1007F3001201258BAF03120125A1AF03120125E8D6
:10080300AF03120125FCB00312012589B1031201C4
:1008130025D4B103120125294500120125354500D0
:10082300120125704500120125B5450012012575F9
:100833004600120125FB4600120125604700120104
:10084300258C4700120125C54700120125034A00E4
:10085300120125E74B00120125CD4D001201251091
:100863004F001201255E5100120125705200120142
:1008730025BB5300120125CB5400120125E8540077
:10088300120125235500120125455500120125A803
:100893005500120125695A00120125FE5A00120162
:1008A300254F5B00120125765B00120125C85B0012
:1008B300120125E65B00120125405C001201252987
:1008C3005D001201259F5E00120125235F001201C6
:1008D30025B38903120125BD8903120125008A036B
:1008E3001201251B8A03120125AB8A03120125D3AA
:1008F3008A03120125108B03120125478B03120172
:1009030025708B03120125E58B03120125FA8B0356
:100913001201250F8C03120125408C03120125546B
:100923008C03120125798C03120125B38C03120168
:1009330025DF8C03120125178D03120125968D03E4
:10094300120125DF8D03120125098E0312012534BF
:100953008E03120125D8C20312012518A902120120
:100963002546A90212012594AA0212012574AB029D
:1009730012012593AB0212012510AC02120125537B
:10098300AC02120125A9AD021201256AAE021201C1
:1009930025F1B00212012592B10212012588B2029B
:1009A30012012585B302120125DFB4021201256A63
:1009B300B502120125DDBD0312012546BE03120156
:1009C300259ABE03120125C1BE03120125F2BE03FF
:1009D3001201255C8E03120125C98E031201251015
:1009E3008F0312012528900312012524910312017C
:1009F30025079203120125657700120125A77700C9
:100A03001201257978001201255279001201254C33
:100A13007A001201252E7B00120125977B0012011B
:100A2300254D7C00120125C17C001201252D7D007E
:100A3300120125567D00120125D07D001201256982
:100A43007E00120125CE7E00120125E37E001201F5
:100A530025297F00120125427F00120125A77F006F
:100A6300120125AA7F0012012555A9031201257D34
:100A7300A903120125BBA90312012579AA031201B7
:100A830025E0AA03120125FCAA0312012524AB03C6
:100A930012012554AB0312012563AB03120125E0B8
:100AA300AB0312012506AC0312012514CE0112017A
:100AB30025F2CF0112012524D20112012560D201B2
:100AC3001201258DD20112012577D301120125C20E
:100AD300D3011201250DD4011201251FD4011201E6
:100AE300255FD40112012594D401120125E2D4011A
:100AF30012012511D50112012534D50112012581D9
:100B0300D50112012506D60112012520D8011201B3
:100B1300255FDA01120125A0DA0112012542DC0169
:100B230012012583DC01120125F6DC011201254C9B
:100B3300DD01120125039C02120125019D02120110
:100B4300259AA302120125BBA50212012586A7023D
:100B5300120125EEA8021201258A5F001201253930
:100B630060001201257F6000120125BF61001201A0
:100B730025556300120125CF6300120125EA6300A6
:100B8300120125656400120125BF65001201251FAE
:100B930067001201252568001201258669001201EC
:100BA300259F6900120125FD6900120125EB6A00EA
:100BB3001201251E6B001201258E6B001201250800
:100BC3006C00120125526C001201251C6D001201EC
:100BD30025F16D00120125D06E001201255B6F0017
:100BE300120125C96F001201253D7000120125680D
:100BF30070001201252771001201258C7200120169
:100C030025A97200120125C87200120125B97300CB
:100C1300120125DE730012012508740012012583D9
:100C23007400120125DD74001201254676001201BD
:100C330025F476001201253577001201252F8E0247
:100C43001201257D8E02120125898E02120125676C
:100C53008F02120125988F02120125C98F021201FA
:100C630025499002120125819002120125D3900299
:100C73001201251091021201252D93021201255311
:100C830095021201253E97021201252899021201AD
:100C930025112700120125FC96011201252C97012D
:100CA300120125059E011201258A9F011201258744
:100CB300A5011201256FA601120125ACA60112019F
:100CC30025CFA60112012500A70112012509A701BD
:100CD30012012513A70112012501A801120125F70D
:100CE300A801120125ED8101120125EC85011201F4
:100CF30025F285011201252D8D0112012546920150
:100D0300120125E8A203120125E2A30312012556CD
:100D1300A40312012594A40312012508A5031201BB
:100D23002581A5031201258AA50312012596A50392
:100D3300120125ABA503120125E9A503120125FF25
:100D4300A5031201252A97031201253797031201E0
:100D530025519703120125909703120125CE97037E
:100D630012012533980312012548980312012553D4
:100D73009803120125609803120125779803120145
:100D8300258598031201259098031201259C980349
:100D9300120125AB9803120125B69803120125D938
:100DA30098031201258099031201259099031201DA
:100DB30025AA9903120125C79903120125E3990373
:100DC300120125089A03120125139A0312012528FB
:100DD3009A031201253C9A031201259D9A031201DD
:100DE30025A39A03120125A99A03120125AF9A0399
:100DF300120125C79A03120125FA9A031201250548
:100E03008002120125898002120125388102120114
:100E130025978202120125B88402120125A48502B6
:100E2300120125D98502120125FB8502120125AA8B
:100E33008602120125A28802120125CB8802120123
:100E4300255D89021201258F89021201259C8902E1
:100E5300120125F38902120125198A02120125863E
:100E63008C02120125898D02120125E18D021201E6
:100E73002567EC0112012571ED0112012558EE01E0
:100E830012012562EE0112012584EE011201259063
:100E9300EE0112012529F00112012558F00112017A
:100EA3002574F101120125CDF10112012533F3015E
:100EB30012012512F4011201256EF401120125DB42
:100EC300F40112012516F50112012555F501120150
:100ED300250EF80112012528F801120125B4F801A5
:100EE300120125C2F8011201251BF901120125295E
:100EF300F9011201259CF90112012500FA011201E1
:100F0300254AFA01120125EBB5021201250DB6029D
:100F130012012533B80212012548BB0212012560D4
:100F2300BC0212012513BD02120125F5BD021201F7
:100F330025B0BA03120125D5BA0312012547BB0315
:100F430012012557DD0212012560DD021201256918
:100F5300DD0212012540DE02120125F1DF0212013A
:100F63002527E00212012561E00212012597E00224
:100F7300120125D1E00212012505E10212012531FA
:100F8300E1021201257AE102120125B4E102120104
:100F930025FDE10212012555E2021201258AE20232
:100FA300120125E5E2021201251FE3021201257059
:100FB300E302120125A6E302120125E0E302120176
:100FC300250EE40212012531E40212012561C60354
:100FD3001201258DC603120125E8C603120125F26D
:100FE300C60312012502C703120125BCD502120153
:100FF30025D1D50212012529D60212012590D60248
:10100300120125D8D6021201254ED7021201257DE1
:10101300D7021201258BD702120125EFD702120145
:10102300252DD80212012548D802120125E0D80245
:1010330012012589D9021201250CDA021201254574
:10104300DA02120125D0DA0212012527DB0212018E
:101053002586DB0212012598DB02120125BEDB0285
:10106300120125C7DB0212012520DD0212012543EF
:10107300F20212012522F3021201257EF30212016C
:101083002598F302120125A9F302120125A4F60201
:10109300120125C4F602120125A7B403120125EC9F
:1010A300B40312012532B503120125C5B60312019B
:1010B30025BDC803120125D8C803120125E8C803BA
:1010C3001201250CC70312012575F802120125959B
:1010D300F80212012599F902120125E5F90212011C
:1010E3002505FA0212012558FA02120125C5FA0252
:1010F3001201250BFB021201256FFB0212012521B0
:10110300FE02120125B6C103120125E6C103120135
:101113002516C20312012570C203120125008003A4
:10112300120125258003120125608003120125AFDA
:10113300C7031201251C27001201252A2A001201C8
:1011430025EA2B00120125952C00120125392D00CB
:10115300120125D22D00120125012E00120125DBDB
:101163003200120125863300120125F634001201E4
:10117300255E3500120125123600120125D43800F0
:10118300120125133900120125873900120125E6C2
:101193003900120125453A00120125B43A00120123
:1011A30025A73B00120125ED3B00120125323C002F
:1011B300120125553C00120125D03D00120125E303
:1011C3003D00120125EC3E001201252B3F001201C8
:1011D30025573F00120125AA3F00120125CB3F00EE
:1011E3001201250F4000120125614200120125A2C0
:1011F30042001201254D4300120125B8430012019C
:1012030025F54400120125ECFF02120125FEB1036E
:1012130012012599B403120125F8C903120125C847
:10122300C403120125D8C403120125F2C403120119
:101233002592C5031201254EAC03120125F4AC031C
:1012430012012510AF031201258BC003120125BD26
:10125300C0031201251DC10312012579C103120127
:1012630025C99203120125E892031201257D9303F8
:101273001201256D9403120125CA96031201250854
:10128300B90312012554B90312012592B9031201BE
:1012930025779B031201259C9B03120125B99B0310
:1012A300120125529D0312012509B703120125726C
:1012B300B70312012530B803120125AFB803120199
:1012C300252FA60312012561A60312012569A70391
:1012D3001201258EA80312012519C102120125FF4F
:1012E300C1021201254CC2021201258FC202120152
:1012F3002504C30212012565C302120125DAC302C4
:10130300120125B6C402120125C1C50212012542EC
:10131300C602120125E9C7021201257FC802120184
:1013230025F2C8021201256EC90212012585C902E0
:10133300120125BCCA0212012516CB021201250F88
:10134300AB01120125A7AF011201257BB2011201E6
:1013530025A4B201120125CDB2011201257FB301EB
:1013630012012565B501120125A0B601120125D68A
:10137300BB011201250FBC0112012553BC0112014F
:101383002565BD0112012538BF0312012596BF0350
:10139300120125ACBF03120125FFBF031201257DF6
:1013A300C00312012595C503120125A1C50312012E
:1013B300252CC603120125F4EB02120125E6EE02E9
:1013C300120125CFEF02120125D2EF02120125A847
:1013D300F002120125E1F00212012521F1021201AE
:1013E3002556F1021201257DF102120125B6F10203
:1013F30012012515F20212012540F20212012555B0
:10140300BC0312012572BC0312012560BD03120146
:101413002594C903120125CE7F00120125DAC903E1
:10142300E066701008A3E066700A08A3E066700423
:1014330008A3E06622C3E7960809E7960809E7963A
:101443000809E79622C3E09608A3E09608A3E0966E
:1014530008A3E09622C008C3E096F50808A3E09627
:10146300420808A3E096420808A3E09645087001E5
:10147300D3D00822080808EAC0E0EBC0E086F0E712
:10148300A4FA180986F0E7A42AFA180986F0E7A453
:101493002AFA180986F0E7A42AFA1986F0E7A4FBCA
:1014A300E5F02AFA190886F0E7A42BFBE5F03AFAEF
:1014B300190886F0E7A42BFBE5F03AFA1818098619
:1014C300F0E7A4C5F02BFBE43AFA1908E7C5F0C628
:1014D300A426F6E5F03BFBE43AFA1886F0E7A4F617
:1014E300E5F00826F6E43B08F6E43A08F6D0E0FB1C
:1014F300D0E0FA22E4CFC0E0E4CEC0E0E4CDC0E027
:10150300E4CCC0E075F020C3E633F608E633F60812
:10151300E633F608E633F6181818EC33FCED33FD22
:10152300EE33FEEF33FFC3EC9709ED9709EE97090E
:10153300EF97191919400FFFEC97FC09ED97FD0977
:10154300EE97FE191906D5F0BEECF709EDF709EE93
:10155300F709EFF7191919D0E0FCD0E0FDD0E0FE50
:10156300D0E0FF221215CF1818181214F71215BE67
:10157300191919221215BE191919080808E618189D
:101583001820E7E01214F71215CF181818220909CA
:1015930009E719191920E7DC080808E618181820C4
:1015A300E7030214F71215CF1818181214F71215BF
:1015B300CF1818181215BE19191922E4C397F70981
:1015C300E497F709E497F709E497F722E4C396F65B
:1015D30008E496F608E496F608E496F62260160800
:1015E3000808C6C313C618C613C618C613C618C63A
:1015F30013C6D5E0EA2270090808082260161818F5
:1016030018C6C333C608C633C608C633C608C633AE
:10161300C6D5E0EA22E627F60809E637F60809E622
:1016230037F60809E637F622E026F608A3E036F691
:1016330008A3E036F608A3E036F622E026F008A376
:10164300E036F008A3E036F008A3E036F022C3E664
:1016530097F60809E697F60809E697F60809E69764
:10166300F622C3E096F008A3E096F008A3E096F014
:1016730008A3E096F022E657F60809E657F60809AC
:10168300E657F60809E657F622E056F608A3E056B1
:10169300F608A3E056F608A3E056F622E056F00853
:1016A300A3E056F008A3E056F008A3E056F022E0CA
:1016B300F608A3E0F608A3E0F608A3E0F622E6F0B6
:1016C30008A3E6F008A3E6F008A3E6F022E0FAA3F5
:1016D300E0FBA3E0FCA3E0FD22EAF0A3EBF0A3EC24
:1016E300F0A3EDF022CAC0E0E6F0A308DAFAD0E0F6
:1016F300FA22CAC0E0E0A3C582CCC582C583CDC5AA
:1017030083F0A3C582CCC582C583CDC583DAE6D079
:10171300E0CA22C3E498F8E499F91217578026C364
:10172300E49AFAE49BFBE920E7E9121757E498F8F7
:10173300E499F922C3E498F8E499F9121757E49865
:10174300F8E499F9C3E49AFAE49BFB22EB20E7CF90
:10175300E920E7E0B90010BB0008E88AF084F8AAA2
:10176300F022E4FBC8FA22EB70227B10C833C8C90D
:1017730033C9335007C39AC3DBF280069A50012A58
:10178300DBEAC833F4C8C933F4C9FA2275F008E4B4
:10179300C833C8C933C933C99AC99B5004C92AC9B4
:1017A3003BD5F0ECFBC833F4C8E4C9FA22600D085A
:1017B300C6A2E713C618C613C6D5E0F322600C0809
:1017C300C6C313C618C613C6D5E0F422700422603C
:1017D3000D18C6C333C608C633C6D5E0F418222590
:1017E3001810AF08F518400215198008F5184002C3
:1017F3001519D2AF22C0D0251810AF08F518500222
:1018030005198008F51850020519D2AFD0D022254A
:1018130018F58210AF08F518400215198008F5185D
:1018230040021519D2AF851983222518F582E435B4
:1018330019F58322E4732518C582C0E0E51934FF46
:10184300C583C0E0E518C3958224F810AF088583EB
:10185300198582188008858319858218D2AFCEF046
:10186300A3E520F0A37808E608F0A3DEFAEFF0A3DF
:10187300E58124FAF8E608F0A3E608F0A3E608F009
:10188300A30808E608F0A3E608F0A315811581D0A4
:10189300E0FED0E0F8158115811581E8C0E0EEC0C7
:1018A300E0222518C582C0E0E51934FFC583C0E0F6
:1018B300E518C3958224F910AF088583198582182A
:1018C3008008858319858218D2AFCEF0A3E520F076
:1018D300A37808E608F0A3DEFAEFF0A3E58124FB82
:1018E300F8E608F0A3E608F0A30808E608F0A3E684
:1018F30008F0A315811581D0E0FED0E0F81581151D
:1019030081E8C0E0EEC0E022851983851882E0A358
:10191300FEE0A3F5207808E0A3F608DFFAE0A3FFD2
:10192300E0A3C0E0E0A3C0E0E0A3C0E0E0A3C0E028
:10193300E0A3C0E010AF088582188583198008856D
:101943008218858319D2AFD083D0820201228519F0
:1019530083851882E0A3FEE0A3F5207808E0A3F6D0
:1019630008DFFAE0A3FFE0A3C0E0E0A3C0E0E0A348
:10197300C0E0E0A3C0E010AF08858218858319801A
:1019830008858218858319D2AFD083D08222C0D034
:101993002518C582C0E0E51934FFC583C0E0E5180A
:1019A300C3958224F310AF088583198582188008B4
:1019B300858319858218D2AFC8F0A3E9F0A3EAF0B2
:1019C300A3EBF0A37908E709F0A3D8FAECF0A3EDB1
:1019D300F0A3EEF0A3EFF0A3D0E0F0A3D0E0F0A3E8
:1019E300D0E0F0A3E520F0A3E5F0F0A3228519836E
:1019F300851882E0C0E0A3E0F9A3E0FAA3E0FBA32B
:101A03007808E0F608A3DFFAE0FCA3E0FDA3E0FE1C
:101A1300A3E0FFA3E0C0E0A3E0C0E0A3E0F5D0A310
:101A2300E0F520A3E0A3F5F010AF088583198582C4
:101A3300188008858319858218D2AFD082D083D0CD
:101A4300E0F8D0E03274048006740280027401C0AE
:101A5300E0F404121812D0E01216E8227404800491
:101A630074028000CCC0E0EDC0E0E518C39CCCADAF
:101A73001950011D10AF068C188D1980068C188D16
:101A830019D2AF1216F5D0E0FDD0E0FC22D083D0FE
:101A930082E9C0E0E493A3C386F0C5F095F0F908AA
:101AA300E493A386F0C5F095F0700BE493A3C39978
:101AB3004005E9048002A3E475F002A42582F582BF
:101AC300E5F03583F583D0E0F9E493A3C0E0E49334
:101AD300C0E022D083D082ECC0E0EDC0E0E493A369
:101AE300FCE493A3FDED4C600D121B22EC24FFFCE0
:101AF300ED34FFFD80EFE493A3FCE493A3FDED4CF1
:101B0300600D121B61EC24FFFCED34FFFD80EFD070
:101B1300E0FDD0E0FCE493A3C0E0E493C0E022C086
:101B2300E0C3E49396087401939618400FE4936618
:101B3300700808740193661870007019A3A3C3E4B6
:101B43009396087401939618A3A3400DD0E0D0E0B8
:101B5300D0E0021B12A3A3A3A3A3A3D0E022C0E05F
:101B6300C0F088F0E49366700808740193661870F7
:101B730000A8F0A3A3700BD0F0D0E0D0E0D0E00237
:101B83001B12A3A3D0F0D0E02274F51218A5EAFE2D
:101B9300EBFFEE2434F8EF3400F988088909EE24CA
:101BA30035F582EF3400F583E0F8EE2437F582EF64
:101BB3003400F583E0F50AEC850AF0A4FCAAF0856D
:101BC3000AF0EDA42AFDE82CF8E43DF97A257B0020
:101BD300121757EA850882850983F0F8740758F9C4
:101BE3007401B900028004C333D9FCFAE813131358
:101BF300541FF8EE28F8EF3400F9E8245DF582E984
:101C03003400F583E05A6008EE2434F582EF802C2B
:101C1300EE2434F582EF3400F583E0C0E0EE2436A1
:101C2300F582EF3400F583E0F5F0D0E084A8F0EE20
:101C330028F8EF3400F9E82438F582E93400F58315
:101C4300E0F97F0402195174F51218A5EAFEEBFFBF
:101C5300EE2434F582EF3400F583E0C0E0EE243562
:101C6300F582EF3400F583D0E0F08E828F83A3A357
:101C7300A3A3A3A3A3C082C0838E828F83A3A3A3A2
:101C8300A3A3E0F8A3E0F9D083D082E0C398F508DA
:101C9300A3E099F509EE247FF582EF3400F583E0A4
:101CA30064017069EE2480F582EF3400F583E0F877
:101CB300A3E0F98E828F83A3A3A3A3A3A3A3E0FC32
:101CC300A3E0FD8E828F83A3A3A3A3A3E0FAA3E0E3
:101CD300FBC3EA9CEB9D5010C3EC98ED99402EC3D7
:101CE300EA98EB995027800EC3EA98EB994007C313
:101CF300EC98ED9940177CDC7D04EEFAEFFB120BB8
:101D0300EFEE247FF582EF3400F583E4F0EE243424
:101D1300F8EF3400F9E8FCE9FDEE2435F582EF3401
:101D230000F583E0F8EE2437F582EF3400F583E025
:101D3300F50AE508850AF0A4F508AAF0850AF0E596
:101D430009A42AF509E82508F8E43509F97A257B79
:101D530000121757EA8C828D83F0F8740758F974D0
:101D630001B900028004C333D9FCFAE813131354F6
:101D73001FF8EE28F8EF3400F9E8245DF582E93422
:101D830000F583E05A6008EE2434F582EF802CEEF0
:101D93002434F582EF3400F583E0C0E0EE2436F519
:101DA30082EF3400F583E0F5F0D0E084A8F0EE286C
:101DB300F8EF3400F9E82438F582E93400F583E0DC
:101DC300F91226A1021C45C082C083851882851999
:101DD30083E0F8A3E0F9C3EA9CEB9D5010C3EC98B1
:101DE300ED99401BC3EA98EB995014800EC3EA980F
:101DF300EB994007C3EC98ED99400479018002798F
:101E030000D083D08222EAC39CFAEB9DFB2274EFBD
:101E13001218A59003A2E064086005E06407702A25
:101E23009061C8E060249003D0E0F4601DE0F87591
:101E3300F003A4C8AAF02AF974D228FE740339FF68
:101E43008E828F83A3A3A3E07003021F419060607F
:101E5300E0C0E0EE2468F582EF3400F583D0E0F0D3
:101E6300750C45750D05750800750900E5D914F560
:101E73000AE5D95403F50E60177403650E605CE53B
:101E83000A6010EE2467F582EF3400F583E07003F7
:101E9300021F26900540E06401602AEE2482F58249
:101EA300EF3400F583E06004780480027800850A4B
:101EB30008E508C398FA95E0FB120ABD8A088B0966
:101EC300EA45097005120DE18074EE2482F582EF74
:101ED3003400F583E070048A0C8B0DE50A601285EB
:101EE3000C82850D83F50BE5D9F0A3150BE50B707B
:101EF300F6EE2482F582EF3400F583E0604474FC4F
:101F0300250AF50A780C121A4CAC0AA90EEEFAEF60
:101F1300FB120C8B74021217F8E97026AA08AB099E
:101F23001212AF793D8E828F83A3A3A3A3E0FA7B22
:101F330000120991EEFAEFFB120C07120C9D7900C7
:101F430080747403650E6056850A1075110078104D
:101F5300121A4CAC0CAD0DAA08AB09120C67740233
:101F63001217F8EE2468F582EF3400F583E06480FD
:101F73007004747F8001E0F50C780C121A50E50EA2
:101F8300F50C780C121A50A90AAC08AD099003D0CD
:101F9300E0FA7B0012095574021217F880139003BC
:101FA300A2E06408600BAC0CAD0DEEFAEFFB120C73
:101FB300F7120DED79017F0A02195174F51218A574
:101FC30074FC1217E2EAFEEBFF8908A2AFE433F5D3
:101FD30009C2AF806AEE2463F8EF3400F97A007B1C
:101FE30000A2AFE433F50AC2AF88828983E0FCA381
:101FF300E0FDEC4D603A88828983E0FAA3E0FB8A36
:10200300828B83E0FCA3E0FD88828983ECF0A3ED5F
:10201300F08A828B83E4F0A3F088828983E0FCA3B7
:10202300E0FDEC4D700A88828983A3A3E4F0A3F05A
:10203300E50AA2E092AF1212AF9004E3E004F0EEDF
:102043002463F582EF3400F583E0F8A3E0F9E8496F
:10205300603DEE2463F582EF3400F583E02402FA59
:10206300A3E03400FBEA2402F50AEB3400F50B7815
:102073000A121A4C8A828B83E0FCA3E0F9EEFAEF92
:10208300FB120C2B74021217F8E97003021FD8908D
:1020930004E3E060639004E4E0F89004E3E0C398B1
:1020A300500C7402650870509004E5E0604A8E821B
:1020B3008F83A3A3A3A3E0851882851983F0A3E4E8
:1020C300F09004E3E0F8740212182DE8F0A3E4F0B2
:1020D3009004E3E0F89004E2E028F0740212182D73
:1020E300AC82AD83851882851983AA82AB8379017B
:1020F3001209619004E3E4F0E509A2E092AF7404ED
:102103001217F8021C450000008521878522C6228C
:10211300C0E0C0D0E8C0E0E9C0E0EAC0E0EBC0E066
:10212300ECC0E0EDC0E0EEC0E0C008C009C00AC0EA
:102133000BC082C083C0F0A2AFE433FEC2AF759B75
:1021430000906182E0A2E05012E591A2E0500C758C
:1021530091FE740165217003121E11E0A2E5505136
:10216300E591A2E5504B7591DF9003A2E06407600F
:1021730005E06408702374016521703579019003CB
:10218300D0E0FA75F003A4CAA8F028FB74D22AFAA7
:1021930074033BFB121FBE8018E0640D70139003A1
:1021A300C4E004F064287002E4F07A00E0F9120D50
:1021B300F3906182E0A2E6400302225AE591A2E68F
:1021C300400302225A7591BF9003A2E06405700890
:1021D300120D21120D2D8003120D27752100120DF2
:1021E30081E99003A3F07900120D75120B657A0152
:1021F3007B009003A1E0F9121045907803E064425C
:102203007055900544E014F0704DC2AF12221200D5
:10221300782AD0E0F618D0E0F6E59F5407700575EC
:1022230009FF800375097FC4C0E07829E6F5080833
:10223300E65509F509740B78081217C0D0E0250894
:10224300F8906270E0A2E740F8E8C333906272F05E
:10225300906270E0D2E0F0906181E0A2E35009E582
:10226300E9A2E3500375E9F7A3E0A2E75009E5917A
:10227300A2E7500375917FEEA2E092AFD0F0D08336
:10228300D082D00BD00AD009D008D0E0FED0E0FD38
:10229300D0E0FCD0E0FBD0E0FAD0E0F9D0E0F8D019
:1022A300D0D0E032C0E0C0D0C082C083906183E070
:1022B300A2E05009E5BFA2E0500375BFFEE0A2E132
:1022C3005009E5BFA2E1500375BFFDE0A2E250094A
:1022D300E5BFA2E2500375BFFBE0A2E35009E5BFEF
:1022E300A2E3500375BFF7E0A2E45009E5BFA2E4FF
:1022F300500375BFEFE0A2E55009E5BFA2E5500327
:1023030075BFDFE0A2E65009E5BFA2E6500375BF43
:10231300BFD083D0828088C0E0C0D0E8C0E0E9C0ED
:10232300E0EAC0E0EBC0E0ECC0E0EDC0E0C0F0E507
:10233300A7A2E6500FE5A1A2E6500953A7BF75A1D6
:10234300BF12237FE5A7A2E5500CE5A1A2E5500645
:1023530053A7DF75A1DFE5A7A2E15009E5A1A2E13B
:10236300500375A1FDE5A7A2E2500CE5A1A2E2503E
:102373000653A7FB75A1FBD0F002229074F8121844
:10238300A57521019003A2E064067015120CBB8AA7
:10239300828B83A3A3A3A3A3A3E0FAA3E0FB120D61
:1023A3000FA2AFE433FED2AF9003A8E0640170182C
:1023B3007A207B009003A1E0F91210ED7A207B00D4
:1023C3009003A1E0F912104B906182E0D2E6F09005
:1023D3000541E0602185C62280169003A7E06401D1
:1023E3007008E5C654F84405F5C653BEFC12210C2B
:1023F3007401652160E4EEA2E092AF7F01021951FE
:10240300008E238F2485822885832785188285194A
:1024130083E0CEA3E0CF852882852783EBC9EAC872
:10242300EDCBECCA75F010C3E833C8E933C9EA331E
:10243300CAEB33CBC3EA9EF526EB9FF525B35004D5
:10244300AB25AA26EC33CCED33CDD5F0DAAE23AFF2
:10245300242274ED1218A58A088B098C0A8D0B743B
:102463001312182D780C1216B27808790C1214383E
:102473007510017511C87512007513005012780894
:10248300790C1216517810790812143850168010EE
:10249300780C79081216517810790C12143840040C
:1024A3007901800279007F0C02195174ED1218A58D
:1024B3008A088B098C0A8D0B741312182D780C1251
:1024C30016B2780C790812143840117808790C1276
:1024D3001651AA08AB09AC0AAD0B80227510007522
:1024E30011007512007513017810790C12165178CA
:1024F300107908121618AA10AB11AC12AD1380A6EE
:102503008A828B837508FF7509FF750AFF750B00B7
:10251300780812169F7F0402195174F51218A58CBE
:10252300828D8378081216B28A828B8378081216FA
:1025330065EA2404F8EB3400F98C828D83A3A3A30A
:10254300A3E0FCA3E0FD88828983C3E09CF0A3E0C1
:102553009DF088828983C3E09420A3E0944E4026B3
:102563008A828B837508FF7509FF750AFF750BFF58
:10257300780812163E8A828B83A3A3A3A3E02420A8
:10258300F0A3E0344EF002250374F51218A5E9FE1A
:102593009004F7E0FAA3E0FBEEC333F8E433F974F5
:1025A300E928F582748039F583E02AF508A3E03B36
:1025B300F5097808121A4C7A407B427C0F7D001291
:1025C300240474021217F88A088B098C0A8D0B7481
:1025D3001078081215E0AA08AB097F040219517498
:1025E300F11218A58A0C8B0D8C0E8D0F740F121817
:1025F3002DE0FAA3E0FB741112182DE0F508A3E017
:10260300F5097808121A4CEA2401F508EB3400F5B1
:1026130009E4F50AF50B780C79081214777508713B
:10262300750902780C7908121477AA0CAB0DAC0E5D
:10263300AD0F12240474021217F88B09EA450960DE
:10264300047A0180027A00EC2AFCED3400FD741355
:1026530012182DE0F8A3E0F9E8FEE9FFECF8EDF934
:102663007A717B02121757880889098E828F8378C3
:10267300081216C1ECF8EDF97A717B021217578A2A
:10268300088B09740578081217CF8E828F83A3A352
:10269300A3A3E508F0A3E509F07F08021951C0825E
:1026A300C083E9906000F0D083D08222C2AF0200E1
:1026B3000022C0E074F2121991A2AFE433FED2AF4C
:1026C300E589A2E04006E589A2E1500312125B7599
:1026D3008900758900C2C5EEF8EEA2E092AF7F01D2
:1026E3000219F0C0E0C0D0E8C0E0E9C0E0A2AFE466
:1026F30033F8D2AFC2C7E8F9E8A2E092AFD0E0F96D
:10270300D0E0F8D0D0D0E032758900C2C5320201E2
:1027130022FFFFFFFFFFFFFFFF74EE12183974FA69
:102723001217E28A0A8B0B8909ECFEEDFF7508008C
:10273300850A0C850B0D780C121A90000410F529EC
:1027430065278627A527C627E72708283B285C286F
:102753007328A1285F298029A029CA29F529F529E9
:10276300CC287401650970158E828F83E0C39403AE
:10277300500B8E828F83E0900AF3F0800375081864
:10278300022A1E7402650970138E828F83E0F8A3F8
:10279300E0F9900AF4E8F0A3E9F080037508180261
:1027A3002A1E7401650970158E828F83E0C394021B
:1027B300500B8E828F83E0900766F08003750818B4
:1027C300022A1E7401650970158E828F83E0C394FB
:1027D30005500B8E828F83E0900767F080037508A6
:1027E30018022A1E7401650970158E828F83E0C357
:1027F3009402500B8E828F83E0900768F0800375FC
:102803000818022A1E741065097027750C10750DBF
:1028130000780C121A4CEEFCEFFD7A697B07120F5D
:10282300F174021217F88A0C8B0D850C82850D83C7
:102833008003750818022A1E7401650970158E82BB
:102843008F83E0C39402500B8E828F83E0900779CD
:10285300F08003750818022A1E74016509700B8E37
:10286300828F83E0900AF7F08003750818022A1E0E
:10287300740465097022908199780C1216B28E82C5
:102883008F83780C121448500F8E828F831216D0C8
:1028930090077B1216DC8003750818022A1EE509CF
:1028A300702112070FE970131211ADE9F50C79507D
:1028B300121339E9F50D12119B800B90080E740168
:1028C300F08003750818022A1E7407650960030265
:1028D3002959750E06750F00780E121A4C8E828FC9
:1028E30083A3AC82AD83740212182DAA82AB831228
:1028F3000FF774021217F88A108B1185100E8511C9
:102903000F7C007D00851882851983AA82AB838E94
:10291300828F83E0F9121141E9F50CE50CC3940AA7
:10292300502F12070FE97015A90C1211B3E9F50D19
:102933007950121339E9F50E12119B801C750D00A5
:10294300740F250CF5827408350DF5837401F0803E
:10295300087508028003750818022A1E74016509A8
:1029630070158E828F83E0C39402500B8E828F8307
:10297300E090077AF08003750818022A1E74016537
:102983000970158E828F83E0C3940A500B8E828F59
:1029930083E0900AF6F08003750818807E74016561
:1029A30009701F8E828F83E0C3940740158E828F38
:1029B30083E0C39411500B8E828F83E0900AF8F06A
:1029C3008059750818805474016509702090080DAA
:1029D300E0F50C8E828F83E090080DF0E50C703BE0
:1029E30090080DE06401703312119B802E75081856
:1029F3008029C3E50A9427E50B9400501B740265F4
:102A03000970158E828F83E0FCA3E0FDAA0AAB0B4D
:102A13001205ADE9F5088003750802A908740612CA
:102A230017F87F0A02190B74EC12183974DA1217AB
:102A3300E2890D8A128B138C0A8D0B743A12182DAE
:102A4300E0F50C908144C082C08385188285198388
:102A5300AC82AD83D083D08274061216F5851882BA
:102A6300851983AC82AD83AA12AB13A90D12114150
:102A7300E9FEEEC3940A4003022BC9EEF912117D5D
:102A8300E9FF900AF3E064027004740180027400A9
:102A9300F5087808121A50AD0CEFFCEEF9AA0AAB50
:102AA3000B1211EF74011217F87C147D0079007476
:102AB3001212182DAA82AB831210098A0E8B0F856E
:102AC3000E08850F09741212182DAC82AD837A108B
:102AD30075F006EEA42424F9121333E970437C1035
:102AE30079FF741212182DAA82AB83121069E97050
:102AF30030742212182DAC82AD837A0475F006EE81
:102B0300A42425F9121333E9F508741212182DAC15
:102B130082AD83EFA2E0E433F9AA0AAB0B120637C6
:102B2300E9740612182DAC82AD837A0C74702EF9F9
:102B3300121333E9707E740612182DAA82AB831226
:102B43001171750E00E50EC394045068E50EA80ECE
:102B53007900E875F003A4C8AAF075F000A42AFA76
:102B630075F003E9A42AF9740612182DE58228F5F5
:102B730008E58339F509850882850983E0F8A3E030
:102B8300F9E849602B850882850983A3A3E0F51042
:102B93007511007810121A4C850882850983E0FCB0
:102BA300A3E0FDAA0AAB0B12089B74021217F8E903
:102BB300050E8091EFA2E1500D900765E0F9AA0A96
:102BC300AB0B1208A1E97404650C700F900AF3E0D3
:102BD30064027007AA0AAB0B1211E979007426127A
:102BE30017F87F0C02190B74F2121839890BEAFEDD
:102BF300EBFF8C088D09750A0AE50B600C1460095C
:102C0300146044146064022C8EEEFAEFFB12118FF1
:102C1300E9F50AE50AC3940A5071E5084509606BB2
:102C2300750C06750D00780C121A4CEEFCEFFDAA1C
:102C330008AB09120FF174021217F88A0C8B0D8579
:102C43000C82850D838044EEFAEFFB121189E9F5BE
:102C53000AE50AC3940A5033E5084509602DAA081A
:102C6300AB09A90A121183E98021EEFAEFFB1211D5
:102C730095E9F50AE50AC3940A5010E50845096089
:102C83000AAA08AB09A90A121183E9A90A7F060255
:102C9300190B74F21218398A0C8B0DE9FE7F157427
:102CA300FF650C700474FF650D702A750800E50854
:102CB300C3940A5014EEFC7A027B00A90812115F38
:102CC300E960027F00050880E5EE60637AD77B1137
:102CD300120A9F805AAA0CAB0D120A818A0A8B0B27
:102CE300850A08850B09E508450960417C007D00DC
:102CF300E5082405FAE5093400FB85088285098384
:102D0300A3A3A3A3E0F9121141E9F50AE50AC394C9
:102D13000A500EEEFC7A027B00A90A12115FE97FCA
:102D230000EE600BAA08AB091211D780027F14EFE3
:102D3300F97F0602190B74EE1218398A0E8B0F8C69
:102D43000A8D0B741212182DE0F50CA3E0F50D7526
:102D5300081574FF650E700474FF650F701E7E0006
:102D6300EEC3940A5062AC0CAD0DAA0AAB0BEEF99C
:102D7300121165E960037508000E80E4AA0EAB0F1B
:102D8300120A818A108B11AE10AF11EE4F60367CA0
:102D9300007D00EE2405FAEF3400FB8E828F83A3BF
:102DA300A3A3A3E0F9121141E9F509E509C3940AC4
:102DB3005016AC0CAD0DAA0AAB0BA909121165E9AB
:102DC3007508008003750814A9087F0A02190B749B
:102DD300F7121839EAFEEBFF90077FEEF0A3EFF04E
:102DE300900765E0FC7D007A267B001205ADE9F5CE
:102DF30008900765E0F91208177F0102190B74F2B6
:102E030012183974EC1217E28A0A8B0B850A828531
:102E13000B83A3A3E024FA700302326124FD700341
:102E23000230D7147003022EF414601024FD7003D3
:102E330002307F1470030231170232CFAE0AAF0B98
:102E430090077FE0F8A3E0F9E849606990077FE025
:102E5300F8A3E0F5838882E0F8A3E0F9E849605538
:102E6300EE240CF582EF3400F583E0F508780812C0
:102E73001A50EE240BF582EF3400F583E0F98E82CD
:102E83008F83A3A3A3A3A3A3A3A3A3E0FCA3E0FD16
:102E9300EE2403FAEF3400FB90077FE0F8A3E0F59C
:102EA300838882E0F8A3E0F58388821218377401DF
:102EB3001217F880398E828F83A3A3A3A3A3A3A39E
:102EC300A3A3121A6390077B1216D0120649740249
:102ED3001217F8E9601879018E828F83A3A3A3A345
:102EE300A3A3A3A3A3E0FAA3E0FB120643E90232E0
:102EF300CFAE0AAF0B8E828F83A3E0600302302D27
:102F03008E828F83A3A3A3A3A3E0A2E04003023096
:102F13002D900819E0F8A3E0F9E849600302302D89
:102F23007C0E7D007900851882851983AA82AB8384
:102F33001210098A088B09AA08AB09EE240CF58242
:102F4300EF3400F583E0F8A3E0F9E849603B750846
:102F5300067509007808121A4CEE240CF582EF343A
:102F630000F583E02410FCA3E03400FD7402121882
:102F73002DAA82AB83120FF174021217F88A088B01
:102F83000985088285098380548E828F83A3A3A336
:102F9300E0FAA3E0FB120A818A0C8B0D850C0885ED
:102FA3000D09E50845096032750C06750D00780CAE
:102FB300121A4CE5082405FCE5093400FD740212DD
:102FC300182DAA82AB83120FF174021217F88A0C20
:102FD3008B0D850C82850D8380030232CF8E828F09
:102FE30083A3A3A3A3A3E0A2E25004D2F08002C26E
:102FF300F0A2F0E433F87900740C12182DE048F0D5
:10300300A3E049F0EEFCEFFD851882851983AA82BF
:10301300AB83121177E970127A027B00900765E0A7
:10302300F9121045E979000232D190077FE0F8A345
:10303300E0F9E849604390077FE0F8A3E0F583886F
:1030430082A3A3E0F8A3E0F9E849602D8E828F8381
:10305300A3E0FC79018E828F83A3A3A3E0FAA3E00C
:10306300FB90077FE0F8A3E0F5838882A3A3E0F851
:10307300A3E0F58388821218370232CFAE0AAF0B72
:1030830090077FE0F8A3E0F9E849604590077FE007
:10309300F8A3E0F5838882A3A3E0F8A3E0F9E84965
:1030A300602F850A82850B83A3E0FC79028E828FD1
:1030B30083A3A3A3E0FAA3E0FB90077FE0F8A3E0D8
:1030C300F5838882A3A3E0F8A3E0F583888212182E
:1030D300370232CFAE0AAF0B7C007D00EE2404FA38
:1030E300EF3400FB8E828F83A3A3A3E0F912114177
:1030F300E9F508E508C3940A5017EE240AFCEF34F7
:1031030000FD7A0475F006E508A42425F912132DB1
:10311300E90232CFAE0AAF0B90077AE06018900A4B
:10312300F6E0F98E828F83A3A3A3E0FAA3E0FB1258
:103133000643E90232CF900AF3E0701579058E82D7
:103143008F83A3A3A3E0FAA3E0FB120643E90232B1
:10315300CF8E828F83A3A3A3E0FAA3E0FB120A819D
:103163008A0C8B0D850C08850D098E828F83A3A392
:10317300A3A3A3A3A3E0A2E05075E5084509606CEF
:10318300850882850983A3A3A3A3E060628E828F4F
:1031930083A3A3A3A3A3A3A3A3A3E0F8A3E0F9E8B2
:1031A300C4540FF879005401F8E95400F9E8A2E097
:1031B300403D740E12182DAC82AD83E5082405FA48
:1031C300E5093400FB850882850983A3A3A3A3E053
:1031D300F9121141E9701879038E828F83A3A3A397
:1031E300E0FAA3E0FB120643E90232CF0232CFEE4C
:1031F3002405FCEF3400FD850882850983A3A3A37E
:10320300A3E0F98E828F83A3A3A3E0FAA3E0FB12CA
:1032130011E390077FE0F8A3E0F9E849603E9007E7
:103223007FE0F8A3E0F5838882A3A3E0F8A3E0F9A5
:10323300E84960287C0079008E828F83A3A3A3E0F2
:10324300FAA3E0FB90077FE0F8A3E0F5838882A36D
:10325300A3E0F8A3E0F5838882121837806E120783
:103263000FE9706890080EE06401701A1211ADE95D
:10327300FE90080E7400F07C0A7D0079007A0F7BC3
:1032830008121009803C7E00EEC3940A50348E0865
:10329300750900740F2508F58274083509F583E074
:1032A3006401701BEEF91211B3E9F88E0875090079
:1032B300740F2508F58274083509F5837400F00E40
:1032C30080C67950121339E9FE12119B79017414E7
:1032D3001217F87F0602190B74F312183974F212DD
:1032E30017E28909EAFEEBFF8C0C851882851983A6
:1032F300AC82AD837A0E75F006E509A42420F91299
:103303001333E970727C0679FF851882851983AAC5
:1033130082AB83121069E9705E740C12182DE0F809
:10332300A3E0F9E8F508E50C6005EE42088004EE39
:10333300F4520885080A750B00740C12182DE06509
:103343000A7004A3E0650B602AE508A808790074F5
:103353000C12182DE508F0A3E9F08518828519836E
:10336300AC82AD837A0E75F006E509A42420F91228
:10337300132DE9790180027900740E1217F87F0585
:1033830002190B74F012183974E61217E2890B8ACA
:103393000C8B0DECFEEDFF740C12182DAC82AD837B
:1033A3007A0E75F006E50BA42420F9121333E960B5
:1033B300030234EA7C0679FF740C12182DAA82AB3F
:1033C30083121069E960030234EA85188285198340
:1033D300AC82AD837A0C7470250BF9121333E96058
:1033E300030234E6750A00851882851983AA82AB25
:1033F30083121171E50C450D703A7C0C7900851828
:1034030082851983AA82AB83121069E960030234AF
:10341300C07C0C7D007900851882851983AA82AB54
:10342300831210098A088B09850882850983750A26
:10343300010234C0851882851983AC82AD83AA0C3E
:10344300AB0D12116B8A0E8B0F850E08850F09E5E4
:103453000845097036EE4F6021851882851983ACC3
:1034630082AD837A007B0012116B8A0E8B0FA80E3C
:10347300A90F88088909E84970047900806B8508D9
:1034830082850983E50CF0A3E50DF08508828509A3
:1034930083A3A3E0F87900EE687002EF69601EEE83
:1034A300850882850983A3A3F0EE4F700D850882FA
:1034B3008509837400F0A37400F0750A01E50A60BE
:1034C30022851882851983AA82AB8312117185180C
:1034D30082851983AC82AD837A0C7470250BF91243
:1034E300132DE9790180027900741A1217F87F0805
:1034F30002190B74F7121839EAFEEBFF7B00EBC3DA
:103503009404504EEBF87900E875F003A4C8AAF0D0
:1035130075F000A42AFA75F003E9A42AF9EC28F55A
:1035230082ED39F583E06E7003A3E06F7021EBF851
:103533007900E875F003A4C8AAF075F000A42AFA8C
:1035430075F003E9A42AF9EC28FAED39FB80070B9F
:1035530080AC7A007B007F0102190B74F7121839D3
:103563007F00EFC39404400302360DEFF87900E8BF
:1035730075F003A4C8ACF075F000A42CFC75F0033F
:10358300E9A42CF9EA28F582EB39F583E0F4FCA3EE
:10359300E0F4FDEFF87900E875F003A4C8AEF07528
:1035A300F000A42EFE75F003E9A42EF9EA28F582B3
:1035B300EB39F583ECF0A3EDF0EFF87900E875F063
:1035C30003A4C8ACF075F000A42CFC75F003E9A4C7
:1035D3002CF9EA28F582EB39F583A3A3E0F4C0E0E4
:1035E300EFF87900E875F003A4C8ACF075F000A417
:1035F3002CFC75F003E9A42CF9EA28F582EB39F5E4
:1036030083A3A3D0E0F00F0235657F0102190B7489
:10361300F012183974F41217E2EAFEEBFF8C088DEE
:1036230009900819E0F8A3E0F9E849702CEE4F601F
:1036330006E5084509700579010238CAEEFAEFFB81
:1036430012118FE9900AF9F0900AF9E0C3940A4045
:10365300081211A1E9900AF9F0900AF9E0C3940A5B
:1036630040030238C8900819E0F8A3E0F9E849607C
:1036730003023714EEFCEFFD7A0E75F006900AF99B
:10368300E0A42420F912132DE9F50C7C0C7D0079BC
:10369300FF851882851983AA82AB831210098A0ECB
:1036A3008B0F850E0A850F0B851882851983AC82D3
:1036B300AD837A0C900AF9E02470F912132DE9F521
:1036C3000D750E0E750F00780E121A4CEEFCEFFD01
:1036D300900AF9E0F87900E875F00EA4C8AAF0752D
:1036E300F000A42AFA75F00EE9A42AF9748128FAE5
:1036F300740739FB120FF174021217F88A0E8B0F3D
:10370300A80EA90F900819E508F0A3E509F00238FF
:10371300C4900819E0F8A3E0C82406F582E8340051
:10372300F583E0F8A3E0F9E8496043900819E0F86D
:10373300A3E0C82406F582E83400F583E0FCA3E0A7
:10374300FD7A1B75F006900AF9E0A42421F91213FF
:103753002DE9F8900819E0F9A3E0C92406F582E9F8
:103763003400F5837400F0A37400F00238C49008A9
:1037730019E0F8A3E0C8240AF582E83400F583E0F1
:10378300F8A3E0F9E8496043900819E0F8A3E0C81A
:10379300240AF582E83400F583E0FCA3E0FD7A1BFC
:1037A30075F006900AF9E0A42422F912132DE9F822
:1037B300900819E0F9A3E0C9240AF582E93400F579
:1037C300837400F0A37400F00238C4900819E0F881
:1037D300A3E0C8240CF582E83400F583E0F8A3E005
:1037E300F9E8496043900819E0F8A3E0C8240CF510
:1037F30082E83400F583E0FCA3E0FD7A1075F0065F
:10380300900AF9E0A42423F912132DE9F89008197A
:10381300E0F9A3E0C9240CF582E93400F5837400D0
:10382300F0A37400F00238C4900819E0F8A3E0C8CC
:103833002408F582E83400F583E0F8A3E0F9E849C9
:10384300606F900819E0F8A3E0C82408F582E83413
:1038530000F583E0FCA3E0FD7A1075F006900AF909
:10386300E0A42424F912132DE9F50A900819E0F8CD
:10387300A3E0C82408F582E83400F583E02410FCB3
:10388300A3E03400FD7A0475F006900AF9E0A4245D
:1038930025F912132DE9F8900819E0F9A3E0C924DA
:1038A30008F582E93400F5837400F0A37400F08016
:1038B3001090080DE060031211F51211DD790180FB
:1038C30006790080027901740C1217F87F08021937
:1038D3000B74F712183974F21217E2E9FE85188295
:1038E300851983AC82AD837A0E75F006A42420F982
:1038F300121333E9700E740C12182DE0F8A3E0F9DB
:10390300E8F980027900740E1217F87F0102190B8F
:1039130074F412183974F21217E28909EAFEEBFF04
:10392300E509C3940A5004EE4F70047902804B8575
:103933001882851983AC82AD837A0E75F006E5098A
:10394300A42420F9121333E9F508E508702A750A4F
:1039530006750B00780A121A4C740212182DAC82E9
:10396300AD83EEFAEFFB120FF174021217F88A0A15
:103973008B0B850A82850B83A908740E1217F87FB7
:103983000402190B74F4121839EAFEEBFF750800F0
:10399300E508C3940A5045750A06750B00780A12A8
:1039A3001A4CEEFCEFFDE508A8087900E875F00E67
:1039B300A4C8AAF075F000A42AFA75F00EE9A42AA7
:1039C300F9748728FA740739FB121003740212176B
:1039D300F8E96004A9088006050880B4790A7F0421
:1039E30002190B74F4121839EAFEEBFF750800E5AF
:1039F30008C3940A5045750A06750B00780A121A13
:103A03004CEEFCEFFDE508A8087900E875F00EA47C
:103A1300C8AAF075F000A42AFA75F00EE9A42AF9F1
:103A2300748128FA740739FB12100374021217F811
:103A3300E96004A9088006050880B4790A7F0402B6
:103A4300190B74F712183974F01217E2EAFEEBFF40
:103A5300750800E508C3940A504B851882851983BD
:103A6300AC82AD837A1075F006E508A42423F9121D
:103A73001333E9702C7C1079FF851882851983AA8A
:103A830082AB83121069E97018EEFCEFFD85188292
:103A9300851983AA82AB83120619E97004A90880E9
:103AA30006050880AE790A74101217F87F0102190F
:103AB3000B74F4121839750800E508C3940A40031F
:103AC300023B96E508A8087900E875F00EA4C8AA99
:103AD300F075F000A42AFA75F00EE9A42AF97481AE
:103AE30028FC740739FD7A0E75F006E508A4242036
:103AF300F9121333E97003023B917C067D0079FFD1
:103B0300E508AA087B00EA75F00EA4CAA8F075F0D0
:103B130000A428F875F00EEBA428FB74812AFA742C
:103B2300073BFB1210098A0A8B0BAE0AAF0B7C060C
:103B33007D0079FFE508AA087B00EA75F00EA4CAA8
:103B4300A8F075F000A428F875F00EEBA428FB7418
:103B5300872AFA74073BFB1210098A0A8B0BAC0AFB
:103B6300AD0BE508A8087900E875F00EA4C8AAF023
:103B730075F000A42AFA75F00EE9A42AF9748D28C9
:103B8300F582740739F5837400F0A37400F0050817
:103B9300023ABC90080DE060031211F51211DD7FAB
:103BA3000402190B74F71218397E00EEC3940A50FD
:103BB300327C0679FFEEFA7B00EA75F00EA4CAA800
:103BC300F075F000A428F875F00EEBA428FB7481BF
:103BD3002AFA74073BFB121069E96004EEF98005C9
:103BE3000E80C8790A7F0102190B74F71218397E07
:103BF300007F00EFC3940A502F7C0679FFEFFA7B16
:103C030000EA75F00EA4CAA8F075F000A428F875B0
:103C1300F00EEBA428FB74812AFA74073BFB121005
:103C230069E970010E0F80CBEEF97F0102190B7465
:103C3300F71218397E007F00EFC3940A500DEE701F
:103C43000AEFF91211B3E9FE0F80EDEEF97F0102DD
:103C5300190B74F012183974CB1217E28909900A00
:103C6300F9E06509701D7A017B00900765E0F912A0
:103C7300104BE97A027B00900765E0F912104BE9DB
:103C8300121201742712182DAC82AD837A0E75F0CF
:103C930006E509A42420F9121333E96003023DC1A8
:103CA3007C0679FF742712182DAA82AB8312106940
:103CB300E96003023DC17C0E7D0079FF7427121871
:103CC3002DAA82AB831210098A0A8B0B850A0C85F5
:103CD3000B0D7C1B7D0079FF740C12182DAA82AB8F
:103CE300831210098A0E8B0F850E0A850F0B7C0C2D
:103CF3007D0079FF851882851983AA82AB83121010
:103D0300098A0E8B0FAE0EAF0F742712182DAC82DB
:103D1300AD837A0E75F006E509A42420F912132D5C
:103D2300E9F508740C12182DAC82AD837A1B75F07B
:103D330006E509A42421F912132DE94208740C1293
:103D4300182DAC82AD837A1B75F006E509A42422F5
:103D5300F912132DE94208740C12182DAC82AD83AD
:103D63007A1075F006E509A42423F912132DE9420C
:103D730008740C12182DAC82AD837A1075F006E529
:103D830009A42424F912132DE94208740C12182DE6
:103D9300AC82AD837A0475F006E509A42425F912F3
:103DA300132DE94208851882851983AC82AD837A85
:103DB3000C74702509F912132DE942088003750864
:103DC30000A90874351217F87F0802190B74F7124B
:103DD3001839E9FE900765F012119B7F0102190B58
:103DE30074F2121839890AEAFEEBFFEE5400F8EF79
:103DF3005480F9E8496035900765E0F912102D8A7F
:103E03000C8B0DA80CA90D88088909E8496012AA32
:103E130008AB091211C5E96008AA08AB0912101B07
:103E2300E9EE6400FAEF6480FB023EE7EE540260C1
:103E33002D7C007D007A007B00121177E960187AEF
:103E4300017B00900765E0F9121045E9EE6402FA80
:103E5300EF6400FB023EE77A027B00023EE7EEA23C
:103E6300E0507D900819E0F8A3E0F5838882A3A3CE
:103E7300A3E0FAA3E0FB1211FBE9605E90077FE089
:103E8300F8A3E0F9E849604590077FE0F8A3E0F57F
:103E9300838882A3A3E0F8A3E0F9E849602F7C00BC
:103EA3007901900819E0F8A3E0F5838882A3A3A31E
:103EB300E0FAA3E0FB90077FE0F8A3E0F5838882B4
:103EC300A3A3E0F8A3E0F583888212183712120146
:103ED300EE6401FAEF6400FB800A7A017B00800440
:103EE3007A007B007F0602190B74F7121839EAFE79
:103EF300EBFF7508018E828F83E0245060131460FA
:103F03001924E1701CEEFAEFFB121159E9F5088050
:103F130010EEFAEFFB1211CB8007EEFAEFFB121152
:103F2300D1A9087F0102190B74F7121839EAFEEBC5
:103F3300FF8E828F83A3A3A3A3E0641E7011790075
:103F43008E828F83A3A3E0FAA3E0FB121147E97FDC
:103F53000102190B74F6121839EAFEEBFF8E828FF9
:103F630083A3A3A3A3E0703A8E088F0985088285F3
:103F73000983A3A3A3A3A3A3A3121A63850882851A
:103F83000983A3A3A3A3A3E0FCA3E0FD8508828583
:103F93000983A3A3E0FAA3E0FB12114D74021217E5
:103FA300F8E97F0202190B74F7121839EAFEEBFFE6
:103FB300900765E0F98E828F83A3E0FAA3E0FB12FA
:103FC30008A1E97F0102190BC082C08374FF121795
:103FD300E21211A7E9C39402400B85188285198365
:103FE3007402F08009851882851983740AF0851894
:103FF30082851983AC82AD837A017905120727E99B
:1040030074011217F8D083D08202012274F21218BD
:104013003974E81217E2EAFEEBFF890A8C088D096E
:104023007C187D007900851882851983AA82AB8369
:104033001210098A0C8B0DAC0CAD0D8518828519F5
:1040430083EEF0A3EFF0900767E0C0E0740212186C
:104053002DD0E0F0900768E0C0E0740312182DD073
:10406300E0F0900AF8E0C0E0741712182DD0E0F0E9
:10407300741512182DE054FEF8A3E054FFF9900ACA
:10408300F7E0A2E0E433FA7B00E84AF8E94BF9747D
:104093001512182DE8F0A3E9F0900AF7E0A2E15019
:1040A30004D2F08002C2F0741512182DE054FDFA08
:1040B300A3E054FFFBA2F0E433F87900C333F8E93B
:1040C30033F9EA48F8EB49F9741512182DE8F0A30F
:1040D300E9F0900AF7E0A2E35004D2F08002C2F0C4
:1040E300741512182DE054F7FAA3E054FFFBA2F065
:1040F300E433F50C750D007403780C1217CFEA4501
:104103000CF8EB450DF9741512182DE8F0A3E9F03E
:10411300900AF7E0A2E45004D2F08002C2F07415D2
:1041230012182DE054EFFAA3E054FFFBA2F0E4339E
:10413300F50C750D007404780C1217CFEA450CF8D2
:10414300EB450DF9741512182DE8F0A3E9F0900A68
:10415300F7E0A2E55004D2F08002C2F07415121801
:104163002DE054DFFAA3E054FFFBA2F0E433F50C97
:10417300750D007405780C1217CFEA450CF8EB4562
:104183000DF9741512182DE8F0A3E9F0900AF7E081
:10419300A2E25004D2F08002C2F0741512182DE08E
:1041A30054FBFAA3E054FFFBA2F0E433F50C750DC6
:1041B300007402780C1217CFEA450CF8EB450DF9A1
:1041C300741512182DE8F0A3E9F0900768E0602A4F
:1041D300750C10750D00780C121A4C7C697D0774F0
:1041E3000612182DAA82AB83120FF174021217F86C
:1041F3008A0C8B0D850C82850D83900779E0601204
:10420300E50A600E741512182DE04402F0A3E04491
:1042130000F0900779E06006780179008004780067
:104223007900741412182DE048F0900766E06006D8
:1042330078047900800478007900741412182DE052
:1042430048F0AC08AD09851882851983AA82AB832F
:1042530012063DE974181217F87F0602190B74F75A
:10426300121839EAFEEBFF750800900779E0600643
:1042730078017900800478007900E84208900766A5
:10428300E0600678047900800478007900E8420849
:10429300A908EEFAEFFB1206F7E97F0102190B7486
:1042A300EE12183974E51217E28A0C8B0DE9FF8CB4
:1042B300088D09742D12182DE0F50A74086509702C
:1042C3000A75F006EFA42422FE800875F006EFA419
:1042D3002421FE7C1B7D007900851882851983AA21
:1042E30082AB831210098A108B1185100E85110F72
:1042F300851882851983AC82AD837A1BEEF912137C
:1043030033E9703C741A12182DE0C39407403174DA
:104313001A12182DE0C394115026E50AF50B780BF9
:10432300121A50740112182DAC82AD83E508A2E075
:10433300E433F9AA0CAB0D12064F74011217F8E916
:10434300741B1217F87F0A02190B74F7121839122B
:104353000919E97E00EEC3940A50557C0679FFEEF5
:10436300FA7B00EA75F00EA4CAA8F075F000A42841
:10437300F875F00EEBA428FB74812AFA74073BFB53
:10438300121069E97027EEF87900E875F00EA4C8F9
:10439300AAF075F000A42AFA75F00EE9A42AF974BC
:1043A3008128FA740739FB790012091FE90E80A5E9
:1043B3007F0102190B74F612183974FD1217E2EA21
:1043C300FEEBFF90081BE0F8A3E0F9E849703975AC
:1043D300081D7509087808121A4C7508027509003A
:1043E3007808121A4C7508AC7509817808121A4CB2
:1043F3007CFF7DFF7A017B0012076974061217F8B0
:1044030090081BEAF0A3EBF090081BE0F8A3E0F997
:10441300E84970030244D9E4F508F5097808121A4B
:104423004C740412182D8582088583097808121AA2
:104433004C740412182D8582088583097808121A92
:104443004C90081D121A63790290081BE0FCA3E04C
:10445300FDEEFAEFFB12088F74081217F8E9704AA1
:10446300851882851983E0FA7B00740112182DE008
:10447300F87900E4C8F9EA28F508EB39F509E50805
:10448300450960267808121A4C90081BE0F8A3E04F
:10449300F5838882A3A3A3A3E0FCA3E0FDEEFAEFD8
:1044A300FB12114D74021217F8E9E4F508F50978C7
:1044B30008121A4C90081D121A637CFF7DFF9008A6
:1044C3001BE0FAA3E0FB12077574041217F89008B7
:1044D3001BEAF0A3EBF090081BE0F8A3E0F9E8492E
:1044E300700479018002790074031217F87F0202C5
:1044F300190BC082C083900819E0F8A3E0F9E849DA
:104503006017900819E0FAA3E0FB12101BE9F8907A
:1045130008197400F0A37400F0900AF9740AF0D03B
:1045230083D082020122C082C083E9900A07F0028D
:1045330047B874F7121839E99002E1F07C197D034A
:104543007AFF7BFF1208A79002E274FFF0A3F0A3A7
:10455300E4F0A3F0790512082F9002E1E0F91207C5
:10456300517AC57B08120A6F7F0102190B74F4128A
:1045730018398A088B09EB548060309002E1E0F926
:1045830012102D8A0A8B0BAE0AAF0BEE4F60138EFF
:10459300828F83E064B07003120847EEFAEFFB12D8
:1045A300101BAA08E5096480FB80047A007B0002E3
:1045B300478774F212183974FC1217E2EAFEEBFF14
:1045C300EE4F6038740212182DEEF0A3EF1249EC8F
:1045D300ECF0A3ED1249ECAA82AB8312074BE9F589
:1045E300087073741212182D1255A0E50A450B605A
:1045F300658E828F83124663EE4F700575080280C5
:10460300557A067B001210A58A0C8B0DA80CA90DF8
:10461300E8497005750813803D88828983E4124652
:104623006DA3A3EEF0A3EF125A39E50AF0A3E50B4D
:10463300F09002E71246F59002E76017E0FCA3E072
:104643008003EAFCEBFD8C828D831246F570F38CBC
:10465300828D831254C5A90874041217F8025C3BB7
:10466300A3A3A3A3E0FEA3E0FF22F0A3F088828923
:10467300832274F2121839890AE975F017A4FEAF80
:10468300F09002E6E4F09002E41246F5600A12109C
:10469300AB9002E4E4F0A3F0EEFAEFFB1210A58A6C
:1046A300088B09EA4509602FEEFCEFFD7900121033
:1046B300099002E4E508F0A3E509F07B0080081205
:1046C30046DFE4F0A3F00BEBC3950A40F2E50A9052
:1046D30002E6F0790080027913025C3BEB75F01778
:1046E300A4F8A9F09002E4E028FAA3E0398A82F55D
:1046F300832212525BEA4B2274F4121839750800B4
:10470300750900740C12182D125A0DFEE9FF800C66
:10471300E5082401F508E5093400F509C3E5089C1B
:10472300E5099D503285080A85090B7403780A123E
:1047330017CFEA250AF8EB350BF988828983A3A3FF
:10474300A3A3A3A31255A0EE650A7003EF650B7034
:10475300BFE8FAE9FB80047A007B00802774F41237
:1047630018397900EAA2E0501B75083E7509817873
:1047730008121A4C7C047D007A097B0A12082974FA
:10478300021217F87F0402190BC082C0839002E75C
:104793001247BF601C88828983A3A3E06A7003A3C6
:1047A300E06B8882898370E8A3A3A3A31252578086
:1047B300047A007B00D083D082020122125D0EE8CE
:1047C300492274EE12183974FC1217E2EAFEEBFF69
:1047D300851882851983E4F0A3F0EE24021254A90C
:1047E300EE24051249DAEE2404F50EEF124DBFE074
:1047F30024FE603924FC604624FE605224FE605E81
:1048030024FE70030248DF24FE700302495724FE8E
:10481300700302496624FE700302497524FC700389
:1048230002498424FE70030249930249D090030095
:104833007417F0A3E41249F41204C90249D085188D
:1048430082851983AC82AD8312084D0249A0851875
:1048530082851983AC82AD831208530249A0850C6B
:1048630008850D09740212182DAC82AD8385088268
:1048730085098312525712076F8A0C8B0DAC0CAD4E
:104883000DEC4D6042E4F50CF50D780C121A4C75E5
:104893000C00750D03780C121A4C750C01750D0381
:1048A300780C121A4C740812182D121A6379161206
:1048B300525112088F74081217F8E9F50C700B1295
:1048C300524D1204E1800F750C018508828509831E
:1048D3001249E21254C5850C080249A37402121846
:1048E3002DAC82AD83850C82850D8312525712073E
:1048F3006F8A108B11AC10AD11EC4D6043850C82A7
:10490300850D83A3A3121A63751000751103781024
:10491300121A4C7510017511037810121A4C740891
:1049230012182D121A63791612525112088F740835
:104933001217F8E9F509700B12524D1204E7800FB4
:10494300750901850C82850D831249E21254C585D0
:104953000908804C851882851983AC82AD831208BF
:1049630059803A851882851983AC82AD8312085F1A
:10497300802B851882851983AC82AD8312086580EC
:104983001C851882851983AC82AD8312086B800D58
:10499300851882851983AC82AD83120871E9F50805
:1049A300E50860298E828F83A3E06414601F850E5F
:1049B30082850F83E09003001249EC125D0A900395
:1049C300011254C5E508A31249F41204C3EEFAEF29
:1049D300FB1207ED0253B1F50CEF3400F50D221273
:1049E3005D0E85188285198322F0851882851983C7
:1049F30022F07C007D03850A82850B8312525B22A1
:104A030074EE12183974FC1217E28A0A8B0B8C0E9F
:104A13008D0FEA2405F508EB3400F5097C157D00BC
:104A230079007A007B03121009E5082402F50CE5EE
:104A3300091249DD851882851983858210858311C2
:104A43007810121A4C850882850983A3A3A3A312A5
:104A53004F07121A4CE5082405F510E5093400F553
:104A6300117810121A4C850C82850D831252611233
:104A7300076974061217F88A108B11AE10AF11E58F
:104A83000A2402F50AE50B1254ACEE4F7003024BF5
:104A9300C98017740212182D12525788828983EA2B
:104AA300F0A3EBF0900300E004F0900300E0C39464
:104AB300054003024BC9E4F510F5117810121A4CA6
:104AC3007510E97511027810121A4C7510EA7511F8
:104AD300027810121A4C740612182D121A637910E8
:104AE300EEFCEFFD12525112088F74081217F8E909
:104AF300705E850882850983A3A3A3A3A3A3A3E070
:104B0300F89002E9E0687048124F07121A4C7CEAE9
:104B13007D02E5082408FAE5093400FB121003744A
:104B2300021217F8E960298E828F83A3A3A3A3122D
:104B33005257900300E0F510740278101217CF74E7
:104B4300012510F58274033511F583EAF0A3EBF028
:104B5300740212182D8582108583117810121A4C55
:104B6300740212182D121A63850C82850D83125D4F
:104B73001F12077574041217F88A108B11AE10AF49
:104B830011900300E0F510751100740278101217EC
:104B9300CF74002510F874033511F988828983A333
:104BA3001246F57003024A8DE82403F8E93400F94C
:104BB300EE4F6003024A968882898374FFF0A3F064
:104BC300900300E004F0900300E0600A12524D12DB
:104BD30004D57900800B8508828509831254BC793A
:104BE3000A0253B174EA12183974FE1217E28C12D6
:104BF3008D13EA2405F50CEB125E891246677508DE
:104C030000750900EA2402F510EB3400F51185184C
:104C13008285198385820A85830B780A121A4C854B
:104C23000C82850D83A3A3A3A3124DC9121A4CE5CD
:104C33000C2405F50AE50D1254AC780A121A4C85BA
:104C43000C82850D83125D1D12076974061217F815
:104C53008A0A8B0BEA450B7003024D7AEA2404F5AA
:104C63000EEB124DBF1246678A828B83A3A3A3E088
:104C7300F9851082851183125257120757E9F509F6
:104C83006003024D7AE4F514F5157814121A4C7585
:104C930014E97515027814121A4C7514EA75150285
:104CA3007814121A4C740612182D121A637913AC65
:104CB3000AAD0B85108285118312525712088F7427
:104CC300081217F8E9F5096003024D7A9002E9E04A
:104CD300F8E5087009E02402900301F080179003BF
:104CE30001E0FCE82402FAE43400FBEA6C7001EB17
:104CF3006003024D7E850882AA82124EFE9414122E
:104D03004EF65073850E82850F83E0C0E074022A4D
:104D1300124DB6D0E0F00508850E82850F83A3E01F
:104D2300C0E085080A7402250A124DB6D0E0F005EA
:104D3300089002E9124DC9121A4C7CEA7D028508DB
:104D43000A7402250AFA74033400FB120FF1740289
:104D53001217F89002E9E02508F50874FF6E700356
:104D630074FF6F6012EE24010EEF3400FFE508C3F9
:104D730094145003024C11E508601312514285103C
:104D8300828511831252571204DB79008014E509DE
:104D9300700375090A851282851383EEF0A3EFF081
:104DA300A90974021217F87F0E02190B85080C74F7
:104DB30002250CF58274033400F583223400F50FC9
:104DC300850E82F58322125A4C2274EE121839741E
:104DD300FE1217E28C0E8D0FEA2405F50CEB124937
:104DE300DD750B00900300E4F0F50AEA2402F508F0
:104DF300EB3400F5098049900300E0FA9002E9E002
:104E0300F8124EFE9417124EF6400D900300E0F890
:104E13007416C3989002E9F0124F07121A4C7CEAF9
:104E23007D0274012AFA74033400FB120FF1740239
:104E33001217F89002E9E0F8900300E028F0050A61
:104E4300E50C2416F582E50D124DBAE0F8E50AC328
:104E5300984003024EDF900300E0C39416507DE5B3
:104E63000AC333F8E433F9E50C28FEE50D39FF8571
:104E73001882851983AC82AD838E828F8312525739
:104E830012076F8A108B11AC10AD11EC4D700575C4
:104E93000B018043E4F510F5117810121A4C7510CC
:104EA300E97511027810121A4C7510EA751102781F
:104EB30010121A4C740612182D121A6379168508EB
:104EC3008285098312525712088F74081217F8E962
:104ED300F50B7003024DFA1254B880107C007D0369
:104EE3008508828509831252571204EDA90B7402B7
:104EF3000253B3E99400C365D03322EA28F8E434BB
:104F030000F9E822E0F51075110078102274EA1216
:104F1300183974FC1217E28A0C8B0D8C128D13EA6C
:104F23002405F50AEB1254AC750800750900E50A6F
:104F33002402F510E50B3400F511740212182D85C7
:104F4300820E85830F780E121A4C850A82850B8395
:104F5300A3A3A3A31259F8121A4CE50A2405F50ECC
:104F6300E50B3400F50F780E121A4C85108285116B
:104F7300831254B212525112076974061217F88A37
:104F83000E8B0FAE0EAF0FE50C2402F50EE50D34BC
:104F930000F50F80408882898374FFF00508124D65
:104FA300AF74FFF005089002E9E0F50C750D007889
:104FB3000C121A4C7CEA7D0285080C7402250CFA4B
:104FC30074033400FB120FF174021217F89002E914
:104FD300E02508F508EE4F60718E828F83A3A3A3AB
:104FE300E0F9850E82850F83125257120757E9F5B0
:104FF30009EE24041249DAE97044E4F514F515784E
:1050030014121A4C7514E97515027814121A4C759A
:1050130014EA7515027814121A4C740812182D121A
:105023001A637911EEFCEFFD850E82850F83125210
:105033005712088F74081217F8E9F5096027850CD1
:1050430082850D831251381254C5E508700302514D
:105053001E125142850E82850F831252571204F39A
:105063007900025133850882AA82EA9002E9700925
:10507300E02404900301F08022E0F8900301E0F5BE
:1050830014E82404FCE43400FDEC65147001ED70B5
:10509300C0124EFE9412124EF650B6850C82850D48
:1050A30083E0C0E074022A124DB6D0E0F005088513
:1050B3000C82850D83A3E0C0E0124DAFD0E0125106
:1050C3005485820C85830D780C121A4C74041218C3
:1050D3002D121A63851082851183125D1F120775C5
:1050E30074041217F88A0C8B0DAE0CAF0D85080CE7
:1050F3007402250CF874033400F9EE4F7003024F69
:1051030098851882851983E088828983125154A374
:10511300E0C0E0124DAFD0E0024FA6E50970037581
:10512300090A850A82850B831251381254C5A909CD
:105133007404024DA7125D0E85128285138322909B
:105143000301E0F5F0E50884900300F07C007D03A3
:1051530022F005088518828519832274EC12183908
:1051630074FE1217E28A088B098C0E8D0FEA240550
:10517300FEEB3400FF851882851983AC82AD838EE4
:10518300828F8312525712076F8A0A8B0BEE2418F1
:105193001249DAEA450B700302522812539A50322D
:1051A3008518828519831252571208838A108B112E
:1051B300EA4511606B7912AC0AAD0B85088285094B
:1051C30083125257851082851183121837E9F50A25
:1051D3007058E4F50AF50B780A121A4C8E828F8305
:1051E300A3A3E0F50A780A121A4CEE24031254A979
:1051F300780A121A4C8E828F8312526112089574A8
:10520300061217F8E9F50A7021850C82850D83E0F3
:10521300701F8508828509831252571204F9801181
:10522300750A0E8009750A018004E50A60031254A9
:10523300B8850C82850D83E0600479008002A90A99
:1052430074021217F87F0C02190B7C007D03850A88
:1052530082850B8312525B22E0FAA3E0FB22E0FC7F
:10526300A3E0FD85088285098312525B2274EE1246
:10527300183974FE1217E28A088B098C0C8D0DEA1B
:105283002405FEEB3400FF750E0085188285198313
:10529300AC82AD838E828F8312525712076F8A0AB4
:1052A3008B0BEA450B700302538612539A503585D4
:1052B30018828519831252571208838A0E8B0FEABC
:1052C300450F605E7912AC0AAD0B850882850983B0
:1052D300125257850E82850F83121837E9F50E6037
:1052E300030253898508828509831255A0AA0AFB04
:1052F3001208778A108B11A810A911E849701E7A39
:10530300FF7BFF1208778A108B11A810A911E849B7
:10531300606C88828983E50AF0A3E50BF0750A00C7
:105323008007750E0E805F050A9002E6E0FAE50A33
:10533300C39A504AE50A75F017A4FAABF08882893C
:1053430083A3A3E02AFAA3E03BFB8A828B83125454
:10535300B2EC4D70D2750A17750B00780A121A4C0D
:10536300EEFCEFFD120FF174021217F8EEFCEFFDE5
:105373008508828509831252571204FF8014750E23
:10538300098003750E01125D06850C82850D83125B
:1053930054C5A90E024EF1E5082402F508E50934C7
:1053A30000F5098A828B83A3A3A3E0A2E5227404F8
:1053B3001217F87F0A02190B74EC1218398C108D2E
:1053C30011EA2405F50CEB1249DD750F00EA2402FE
:1053D300F50AEB1254AC850A82F583125257120870
:1053E300778A088B09EA4509700302549E750E00FB
:1053F3008071850C82850D83E06401704F8E828FEE
:1054030083A3A3121A638E828F83A3A3A3A3E0F5BE
:10541300127513007812121A4CEE2405F512EF34AC
:1054230000F5137812121A4C125251120895740691
:105433001217F8E9F50F6014850C82850D83E4F0EB
:10544300125D068510828511831254C57C177D0079
:105453007900EEFAEFFB1210098E828F83E4F0A33A
:10546300F0050E9002E6E0F8E50EC398501EE50E37
:1054730075F017A4F8A9F0850882850983A3A31200
:105483005E931254B2EC4D60030253F58508828596
:10549300098374FFF0A3F0E50F7006125251120551
:1054A30005A90F025248F50AEF3400F50B22A3E0D9
:1054B300FCA3E0FD228E828F83125D0E850E828512
:1054C3000F83E8F0A3E9F022C082C0839002E2E0F8
:1054D3006A7003A3E06B70067AE27B0280047A00B1
:1054E3007B000247B8C082C08378008C828D83E042
:1054F3006A7003A3E06B7010E875F003A4F8A9F0D9
:10550300EC28FAED39FB8015088C828D83A3A3A3C5
:10551300E06A7003A3E06B60DF7A007B000247B8A8
:1055230074F61218391208418A828B83E582458307
:1055330070067A007B008007A3A3A3A3125257022D
:105543005BB774F2121839E9FE740E12182D125556
:10555300A0741012182D125A188C828D83E06402E5
:105563007036A3125D14F50CA3E0F9A80C7402685D
:1055730070037429697021750C02750D00780C1283
:105583001A4C7808121A4C780A121A4CEEF91208BF
:10559300B974061217F880027901025C3BE0F50A40
:1055A300A3E0F50B2274E812183974FB1217E2E931
:1055B300851882851983F08A168B17ECFEEDFF752B
:1055C3001000741D12182D125D0A741D12182D126D
:1055D30054C58E828F83A3A3A3E0A2E4502D741D30
:1055E30012182D1252571208838A828B83E5824543
:1055F3008370030259E9790AEEFCEFFDAA16AB1793
:10560300121837E9F51060030259EC741F12182DB4
:10561300125A18742112182D1255A0742312182D22
:10562300E0F50EA3E0F50F8E828F83E06402600342
:10563300025997A3125D0A850882850983A385828F
:1056430012858313EE24061249DA88828983E0FAED
:10565300A3E0F9EA2400F514E439F5157814121AD5
:10566300D60100002801288C560700022851570351
:1056730028BE56002988580129B3580229545803D3
:10568300298858042932599759E50E450F600302BA
:105693005992850C82850D83125A0DFAE9FB8A8291
:1056A3008B83E0850A82850B83125A43121A4C8A34
:1056B300828B83A3E0FCA3E002591CE50E450F6037
:1056C30003025992850A82850B837401F0125A20D2
:1056D300850882850983F07C007D008E828F83A3F9
:1056E300A3A3A3E02401FAA3E03400FB12076FEAAB
:1056F3004B60418A828B83E02402F8850A82850B02
:1057030083E028F0EA2404F8EB3400F988828983E3
:10571300E0851282851383125A55125A43121A4C8A
:105723008A828B831254B1E5082403FAE509340015
:10573300FB025921850A82850B83E02404F07C0453
:105743007D007900AA12AB131210090259ECE50E81
:10575300450F6003025992125A20FEA3E0FF850A07
:1057630082850B837404F0EE850882850983F0EF4C
:10577300851282851383F0740312182DAC82AD83D6
:10578300EEFAEFFB12076F8A0C8B0DEA450D7003DF
:105793000258358A828B83A3A312466374011218BD
:1057A3002D85820E85830F780E121A4C74051218FC
:1057B3002D121A637CFF7DFF12077574041217F80C
:1057C3008B0FEA450F7033850C82850D831259F8D0
:1057D300121A4C850C82850D83A3121A637C027DF9
:1057E300007AC07B811205A174041217F8E9700ACC
:1057F300740112182D74FFF0A3F08E828F83E0647E
:10580300027039750C02750D00780C121A4C8E82D9
:105813008F831254B1E5082404FAE5093400FB121E
:105823000FF174021217F8850A82850B83E02402B4
:105833008009740112182DEEF0A3EFF07401121811
:105843002D125A09F0740112182DA3125A0102598C
:105853008CE50E450F6003025992850C82850D83FA
:105863001254B2AA16AB171208AD850A82850B83B0
:105873007402F0EA850882850983F0851282851314
:1058830083EB02598FE50E450F6003025992125ABA
:1058930020F8A3E0F9850A82850B837402F0E8857A
:1058A3000882850983F0E985128285138302598F63
:1058B300850C82850D83125257120FEBEAFC8C8202
:1058C300A882C3950EE4950F405FE8650E7002E56C
:1058D3000F70047C008022851882851983E0FAE525
:1058E3000E2AFAE50F3400FBC3EA98EB9400500349
:1058F300E08005E50ECCC39CFCEC850A82850B8316
:10590300F08C0A750B00780A121A4C850C82850DEF
:1059130083E0250EFCA3E0350FFDAA08AB09120FA7
:10592300F174021217F80259EC7510070259ECE5ED
:105933000E450F705A850C82850D83125D0A850A08
:1059430082850B83740712466F125A0112466FA3A6
:10595300E0851282851383F0E82402FAE93400FB20
:105963008A828B83125A01125A30125A09A3125A8D
:1059730039125A12F0E82405F8E93400F9888289CB
:1059830083125A12A3125A55A3A3A3A3F0805A75E4
:10599300100B8055741D12182D1252571208418A8C
:1059A300828B83E5824583603D125D0A880C890DF5
:1059B300E8450D6031780E121A4C780A121A4C78A9
:1059C30008121A4C740612182DE0F9EEFCEFFDAA2A
:1059D30016AB17850C82850D8312183774061217C0
:1059E300F8E9F510800375100EA91074051217F865
:1059F3007F1002190BE0F50E750F00780E22E0857B
:105A0300088285098322125A5F22125D0EE8221250
:105A13005A5FA3A322E0F508A3E0F50922850C82CF
:105A2300850D83E0F8A3E0F5838882E022A3A3F049
:105A33008A828B83A322F088828983A3A3A3A322D0
:105A4300F08A828B83125A4C22E0F50A750B007898
:105A53000A22F088828983A3125A5F22E085088292
:105A6300850983A3A32274EE12183974FE1217E278
:105A73008A0A8B0BECFAEDFB741412182DE0F51067
:105A8300A3E0F511741612182DE0FE741812182DE8
:105A9300E0F50EA3E0F50F851882851983AC82AD7E
:105AA3008312076F8A0C8B0DEA450D6049851882B6
:105AB3008519831252571208418A828B83E58245E6
:105AC30083602FA3A3125A18E50845096024780EB2
:105AD300121A4C7810121A4CEEF9AC0CAD0DAA0A3E
:105AE300AB0B85088285098312183774041217F8E3
:105AF3008006790E80027901024EF174F61218398C
:105B030074FE1217E2740C12182D125A0D851882A6
:105B1300851983F0740112182DE9F0E4F508F509ED
:105B23007808121A4C7508027808121A4C74041279
:105B3300182D8582088583097808121A4C12089556
